:1000000002014E02080301000000FF02080BE4FF9A
:10001000C11FFF0208137F01C11FFF02081BFFFF62
:10002000FFFFFF020823FFFFFFFFFF02082BFFFF78
:10003000FFFFFF020833FFFFFFFFFF02083BFFFF48
:10004000FFFFFFA119E59620E7FB2202084BFFFF07
:10005000FFFFFF020853FFFFFFFFFF02085BFFFFE8
:10006000FFFFFF020863FFFFFFFFFF02086BFFFFB8
:10007000FFFFFF020873FFFFFFFFFF02087B120173
:10008000100100000040A01120DB6101010200010D
:100090000902120001010040320904000000FFFFC4
:1000A000FF000403090416034300680069007000A0
:1000B00063006F006E0020004100530012034300F4
:1000C0004300320034003300300044004200BB01E2
:1000D0000689828A83E0225002E722BBFE02E322E5
:1000E00089828A83E49322BB010CE58229F582E5AB
:1000F000833AF583E0225006E92582F8E622BBFE2A
:1001000006E92582F8E222E58229F582E5833AF5BF
:1001100083E49322BB010689828A83F0225002F78E
:1001200022BBFE01F322F8BB010DE58229F582E531
:10013000833AF583E8F0225006E92582C8F622BB0F
:10014000FE05E92582C8F2228A838982E473787FDA
:10015000E4F6D8FD75812A02015A53D9BF75E1072B
:1001600075E2C17580F875A0F775A41D75A5907529
:10017000A6B975F2BB75F3FD75D4C075D54C75D6AF
:1001800002F1D95102D2AF2093073095047F01804C
:10019000027F008F2AE52A6005E4F522801C900882
:1001A00046E493B4E110A3E493B48C0AA3E493B4BB
:1001B00064047F0180027F008F22E522601AE5EF50
:1001C0007F0020E4027F018F23900849918D740401
:1001D00093FE7405B1FC8007E4F523F520F5214377
:1001E000E60243E602E5C930E613E52A70FC3093E7
:1001F0000C209509E5237005E5C920E6EDD18E02B6
:1002000008007D087F0151397D0F7F0751391D7F1F
:100210000951397D047F0B513975D7C043D7207DF3
:10022000807F0F5139E4FD7F01800E7F0E51397DB3
:10023000847F1251397D807F15C2AF8F968D9711C3
:1002400045D2AF22E51564026014E50D450C700E31
:10025000E50F450E7008E50B54FE450A600475165F
:100260000422E50B6027751504E4FF51927D017FA0
:100270000E51397D047F125139E4FD7F1551397DCE
:1002800002512B7D03512BE4FD7F0E80AC751503CD
:100290007F038F178F188F198F1A8F1B8F1C22E4E3
:1002A000FD7F0E51397F11B1B48F25E52530E4046F
:1002B0007D809182E52530E204E4FD9182E51664BB
:1002C0000270497F16B1B48F26B112AD267F20B1DE
:1002D000DCAF267E00C3E5149FF514E5139EF513ED
:1002E000EF2512F512EE3511F511E51445137010D6
:1002F000E509243F7005123D1980029165E4F51669
:10030000E51445137D4860027D408159E516B4052A
:10031000028162E51660028112E52520E002811269
:100320007B007A0079087D087F20B1DCE50BFE7C3C
:1003300000E4250AF50BEC3EF50AE50DFEE4250C7C
:10034000F50DEC3EF50CE50FFEE4250EF50FEC3E49
:10035000F50EE50854E024E0700261F224E06062EA
:1003600024C0603924E0700261F224E0606F24C090
:10037000600261F6E50914601824FE601024FA603A
:100380001424FE60142406706DF10D806C1116802B
:1003900068110E806451448060F1BE805CE50924E0
:1003A000FA601024FE601124FE6011240A7011F11D
:1003B000428046123C018041D1D2803DD1A4803997
:1003C0008034E509243D600C14600D240370231271
:1003D0003D198025D18E8021123CCB801CE509245B
:1003E00040600924FE7009123CF6800D9198800946
:1003F000800091658003751604E51664056065E567
:10040000166406605FE5167D40B404027D607F11CE
:100410005139E51664017045752502C3E514944011
:10042000E513940050058514268003752640C3E526
:10043000149526F514E5139400F51345147005433F
:100440002508F516B112AD267F20D102E52625122A
:10045000F512E43511F511AD257F114139E516B4DA
:100460000602916522E5226015E5236011431F0114
:10047000918A740893FE740993AA06F921487516A7
:1004800004227F115139E4F51622900849E493FEC5
:10049000740193F5828E8322E50D450C7072F51080
:1004A000751100751208F513751408751601B1124F
:1004B000E5213114B112900001E5203126E52260DA
:1004C00008918A740193FF80027F00900002B1C9F5
:1004D0006007918AE493FF80027F00900003B1C916
:1004E0006008918A740393FF80027F00900004B13A
:1004F000C96008918A740293FF80027F0090000512
:10050000EF3126900006E5233126900007E42126EE
:100510008165AB10AA11A91222C0E0C0F0C083C04F
:1005200082C0D075D000C000C001C002C003C004AA
:10053000C005C006C0077F06B1C2601730E202B135
:10054000CFE524421DE5226050918A740693FE7423
:100550000780447F02B1C2602230E0055324FE517F
:100560009FE524421FE51F6030E522602CE52360F3
:1005700028918A740A93FE740B801C7F04B1C260B8
:1005800018421EE51E6012E522600EE523600A9106
:100590008A740C93FE740DB1FCD007D006D005D040
:1005A00004D003D002D001D000D0D0D082D083D0EC
:1005B000F0D0E032C2AFEF4480F5961145AF97D24C
:1005C000AF22B1B48F24E52422EF3126E522227533
:1005D0001502E4FD7F0191847F034192D186601B67
:1005E000430780E4FEEEC39D5011C2AF8F961145C4
:1005F000D198E5973126D2AF0E80EA2293AA06F968
:100600002148D1866018E4FEEEC39D5011C2AF8F21
:1006100096D19811E7F5971145D2AF0E80EA22AE38
:1006200007E50F450E705BE51564026055E515B4EE
:100630000308E50D450C60028048E508541F24FEC0
:100640007040E50B703FAC0DEC5403FD7F0E51394B
:10065000EC30E710547F2403FCEE7D4060027D10F7
:100660007F118009EE7D8060027D207F145139EE7C
:100670007F0060027F0374162CF8A607E4FD7F0E4E
:100680004139751604228B278A288929ED22E52312
:100690007005C2AF75230122AB27AA28A9298E8233
:1006A00075830022E515B40419E508B48114E50B3F
:1006B000450A700EE50D450C7008E50F6401450E06
:1006C000600475160422F103751300751401751684
:1006D0000122E50B450A700EE50D450C7008E50F8B
:1006E0006401450E600475160422E515B4040B750B
:1006F00010FF7511007512068007E515B40302F1AD
:100700000380C57510FF75110075120822E50D45AF
:100710000C700FE50F450E7009E50A7005E50B300A
:10072000E70475160422AD0BE4FF5139E50B6009AF
:10073000E515B4020C75150322E515B40303751510
:100740000222E50B450A700CE50C7008E50F640207
:10075000450E600475160422E508247F600D1460C0
:100760001924027046E50D600D8040E515B40404BF
:10077000E50D60028035F1038034E5156404600204
:100780008029E50D547FFFE50D30E7030F0F0F744F
:10079000162FF8E67BFFB403067A00790680047A08
:1007A0000079088B108A1189128003751604E516EA
:1007B0006404600975130075140275160122E508BA
:1007C000B40112E50F450E700CE50B450A7006E505
:1007D0000D450C60037516042275B980E4FFFE0F09
:1007E000BF00010EEF64144E70F543B9C0E5B93097
:1007F000E5FB75A90275B28322FFFFFFFFFFFFFF34
:100800000208F502333B78B3792AE581942AFA0984
:10081000E708F6DAFA88812222FFFF0232DD017250
:100820000001730001670001680000EF700478990F
:100830007601227F017E000213F8FF022810540F78
:1008400024B0A3F022FFE18C6409CB0C1D89C8936E
:100850000332090634166C4391E90A1F561040888A
:100860003100DF6000000000000000004010A762BF
:10087000C8930332090634166C4391E90A1F5610D7
:1008800040883100DF6000000000000000004021CF
:100890006276C8930332090634166C4391E92A1F25
:1008A000561040813500DF8E00000000000000007F
:1008B0004023313BC8930332090634166C4391E957
:1008C0002A1F561040813500DF8E00000000000016
:1008D0000000405D93B1789303320B0644166C43DD
:1008E00091A90A11561040813500DFFE000000007A
:1008F00000000000407579007581B30209390218C3
:10090000BDE493A3F8E493A34003F68001F208DF6B
:10091000F48029E493A3F85407240CC8C333C454C7
:100920000F4420C8834004F456800146F6DFE4807B
:100930000B010204081020408090081EE47E019301
:1009400060BCA3FF543F30E509541FFEE493A3604D
:10095000010ECF54C025E060A840B8E493A3FAE4A8
:1009600093A3F8E493A3C8C582C8CAC583CAF0A3F9
:10097000C8C582C8CAC583CADFE9DEE780BEAC6BE2
:10098000AD6CAE6DAF6E7810EC4D4E4F70047CA523
:100990007DA5C3EC13FCED13FDEE13FEEF13FF502A
:1009A00010EC64CCFCED644CFDEE644EFEEF64CEC6
:1009B000FFD8DF8C6B8D6C8E6D8F6EEE547FFE22B8
:1009C0008E6B8F6C74A5F56DF56E220400003414E7
:1009D000100818200919F92005090220000101005A
:1009E00040320904000002FFFFFF000705820240B9
:1009F000000507050202400005333135204D487AD5
:100A0000202000343333204D487A202000383638F7
:100A1000204D487A202000393135204D487A202059
:100A200000322E342047487A202000322020202017
:100A300020202020003420202020202020200038CA
:100A4000202020202020202000313620202020209F
:100A50002020003332202020202020200036342087
:100A6000202020202020003132382020202020206B
:100A70000032353620202020202000353132202041
:100A8000202020200031303234202020202000324D
:100A900030343820202020200034303936202020E7
:100AA00020200038313932202020202000313633F8
:100AB00038342020202000333237363820202020C0
:100AC00000363535333620202020003133313037A1
:100AD00032202020003236323134342020200035BC
:100AE000323432383820202000313034383537362F
:100AF000202000534C41564520202020004D4153DA
:100B000054455220202000465245512042414E4437
:100B1000202020200001010371000409F9534554ED
:100B200020494420202020202020000001037201C1
:100B30000700005041434B4554204C454E47544814
:100B40000000010373103D000023204F4620504158
:100B5000434B45545320000101037400130A2B50EA
:100B6000524553455420202020202020000001031E
:100B7000750003000053454C454354204D4F4445F8
:100B80002020000101037600010AF353544152541E
:100B900020504552202020200002000000000000CC
:100BA0000043686970636F6E2043433030303020FB
:100BB00020005072657373205331202D3E20504524
:100BC00052200043686970636F6E20535246303480
:100BD000454220004E6F20454D2064657465637466
:100BE0006564212000751001751102751204850ECF
:100BF00013850F142212186A9003BF7401F022FFAC
:100C00007596A2E59620E7FBE59722759622F59763
:100C1000E59620E7FB22DF06D041D042A12E2253E9
:100C2000A4BFAD4DBD0002C2A2D2867D10308604A5
:100C3000DCFBDDF9002243A440D2A2220000000028
:100C400000000000000022FEE54AB40704EE910B0C
:100C5000222443054AF8EEF622E54A2443054AF8E1
:100C6000E6228F4C228F4D22900089E49364DB6052
:100C700002740164012291687003C2A322D2A322EC
:100C80007E087F001213F891687003D2A322C2A3DA
:100C9000229176EF6006540160398003780DE6609A
:100CA00032120CD87E087F001213F8913CD2879143
:100CB0003CC287913CD287913CC287913C9180C0D5
:100CC0004C754C017455D177E4D177911FD1CC91FB
:100CD00036D04C913C91802275410D75423EC287C1
:100CE000C28643A4C022C2AF75960E759702E596E0
:100CF00020E7FB759694E59620E7FBE59730E03B0F
:100D0000759696E59620E7FBAF97854183854282ED
:100D1000E47343A440D2A2E54B600B75961175971E
:100D200001E59620E7FBDF1675410D75423E75968D
:100D300014759700E59620E7FB80B8D2AF229100AA
:100D400030E000F54B534B0103F54A534A070303C8
:100D5000541E900D5673A1AAA1C4A1F8A172A1BE00
:100D6000A1F2A198A1B8A1ECC11EA1B2A1E6C1183F
:100D7000C14891169100D17753A4BFAD4DBD00027B
:100D8000C2A2D2867D10308604DCFBDDF900D1CC16
:100D90009147D1CC9147A11291169100D17791162C
:100DA0009100D17791169100D17791169100D1776A
:100DB000A11291169100D17791169100D1779116D9
:100DC0009100D17791169100D17753A4BFAD4DBD5D
:100DD0000002C2A2D2867D10308604DCFBDDF90061
:100DE000D1CC9147A11291169100D1779116910023
:100DF000D17791169100D17791169100D17753A4B4
:100E0000BFAD4DBD0002C2A2D2867D10308604DC8B
:100E1000FBDDF900D1CCA11291169100D17791168A
:100E20009100D17791169100D1779159D17753A440
:100E3000BFAD4DBD0002C2A2D2867D10308604DC5B
:100E4000FBDDF900D1CCA11291169100D17791165A
:100E50009100D1779159D1779159D17753A4BFADF2
:100E60004DBD0002C2A2D2867D10308604DCFBDDBF
:100E7000F900D1CCA112EFC54C703BC54C33D287E1
:100E80009286C28733D2879286C28733D287928670
:100E9000C28733D2879286C28733D2879286C2872F
:100EA00033D2879286C28733D2879286C28733D263
:100EB000879286C28722C54C7C089142914233D2E8
:100EC00087913C9286913CC287DCEF22E54C7039D9
:100ED000D287C287A28633D287C287A28633D287BF
:100EE000C287A28633D287C287A28633D287C287BF
:100EF000A28633D287C287A28633D287C287A286D0
:100F000033D287C287A28633227C0891429142D293
:100F100087913C913CA286C28733DCEF22D1CCFF83
:100F200022E709F608DFFA8046E709F208DFFA80CF
:100F30003E88828C83E709F0A3DFFA8032E309F66A
:100F400008DFFA8078E309F208DFFA807088828C83
:100F500083E309F0A3DFFA806489828A83E0A3F641
:100F600008DFFA805889828A83E0A3F208DFFA80DA
:100F70004C80D280FA80C680D4806980F280338031
:100F80001080A680EA809A80A880DA80E280CA80F9
:100F90003389828A83ECFAE493A3C8C582C8CCC59E
:100FA00083CCF0A3C8C582C8CCC583CCDFE9DEE71B
:100FB000800D89828A83E493A3F608DFF9ECFAA90D
:100FC000F0EDFB2289828A83ECFAE0A3C8C582C8CF
:100FD000CCC583CCF0A3C8C582C8CCC583CCDFEA1E
:100FE000DEE880DB89828A83E493A3F208DFF9805C
:100FF000CC88F0EF60010E4E60C388F0ED2402B49F
:10100000040050B9F582EB2402B4040050AF23234E
:10101000458223900F7173BB010689828A83E02287
:101020005002E722BBFE02E32289828A83E49322F4
:10103000BB010CE58229F582E5833AF583E0225075
:1010400006E92582F8E622BBFE06E92582F8E222BF
:10105000E58229F582E5833AF583E49322BB010911
:1010600089828A83F8E028F022500327F722BBFE0A
:1010700005F8E328F3228A838982F8E4932822BBC7
:10108000010689828A83F0225002F722BBFE01F317
:1010900022F8BB010DE58229F582E5833AF583E864
:1010A000F0225006E92582C8F622BBFE05E925821A
:1010B000C8F222EF8DF0A4A8F0CF8CF0A428CE8D3A
:1010C000F0A42EFE22BC000BBE0029EF8DF084FFA1
:1010D000ADF022E4CCF875F008EF2FFFEE33FEEC14
:1010E00033FCEE9DEC984005FCEE9DFE0FD5F0E93B
:1010F000E4CEFD22EDF8F5F0EE8420D21CFEADF03A
:1011000075F008EF2FFFED33FD4007985006D5F03E
:10111000F222C398FD0FD5F0EA22E88FF0A4CC8B21
:10112000F0A42CFCE98EF0A42CFC8AF0EDA42CFC9D
:10113000EA8EF0A4CDA8F08BF0A42DCC3825F0FDDC
:10114000E98FF0A42CCD35F0FCEB8EF0A4FEA9F0D5
:10115000EB8FF0A4CFC5F02ECD39FEE43CFCEAA421
:101160002DCE35F0FDE43CFC2275F008758200EFD1
:101170002FFFEE33FECD33CDCC33CCC58233C582C9
:101180009BED9AEC99E58298400CF582EE9BFEED82
:101190009AFDEC99FC0FD5F0D6E4CEFBE4CDFAE451
:1011A000CCF9A88222B800C1B90059BA002DEC8B45
:1011B000F084CFCECDFCE5F0CBF97818EF2FFFEE21
:1011C00033FEED33FDEC33FCEB33FB10D7039940DA
:1011D00004EB99FB0FD8E5E4F9FA227818EF2FFF1A
:1011E000EE33FEED33FDEC33FCC933C910D7059B5C
:1011F000E99A4007EC9BFCE99AF90FD8E0E4C9FAB8
:10120000E4CCFB2275F010EF2FFFEE33FEED33FD43
:10121000CC33CCC833C810D7079BEC9AE899400A66
:10122000ED9BFDEC9AFCE899F80FD5F0DAE4CDFBE4
:10123000E4CCFAE4C8F922EB9FF5F0EA9E42F0E92B
:101240009D42F0E89C45F022E8600FECC313FCEDF2
:1012500013FDEE13FEEF13FFD8F122E8600FEFC38A
:1012600033FFEE33FEED33FDEC33FCD8F122E6FC28
:1012700008E6FD08E6FE08E6FF22ECF608EDF608B3
:10128000EEF608EFF622ECF0A3EDF0A3EEF0A3EFFC
:10129000F022D083D082E493F608740193F60874A8
:1012A0000293F608740393F6740473A8828583F09E
:1012B000D083D0821212C21212C21212C21212C2F1
:1012C000E473E493A3C583C5F0C583C8C582C8F0A1
:1012D000A3C583C5F0C583C8C582C822EF4E60127E
:1012E000EF60010EEDBB010B89828A83F0A3DFFC66
:1012F000DEFA2289F05007F709DFFCA9F022BBFED5
:10130000FCF309DFFCA9F022202057616974696EA3
:101310006720666F72202020002020636F6E666950
:10132000672064617461202020000D0E0F101112DF
:10133000132E0B15191A1B1D23242621221C2C2DBC
:10134000D0C5D2A0D320CDBAA022A0A0A0CD20D3BA
:10135000BAA0CD20D3A0D3C5CED4A022A0A0A0CF28
:10136000C6A0A0A0CD20D3A0CCCFD3D4A022A0A033
:10137000A0CFC6A0A0A0D320CDA0CCCFD3D4A022F4
:10138000A0A0A0CFC6A0A0A07F81120C917F327E2A
:101390000071F87F68120E76120C1F120F1D8F63FA
:1013A000120F1D8F64120C367F80120C91E563249E
:1013B0007F601524FC601924FC601D24F860212442
:1013C0009070257565118003756525756610801D03
:1013D0007565247566308015756524756631800DD8
:1013E0007565257566118005E4F565F5667B007AFF
:1013F000007965227FFA7E000000000000000000F6
:10140000000000000000EF1F70011E144E70E92262
:101410001208067575FFE4F520F521120C7675A10A
:101420004075F80C75A20BD2F891DE75A33030FF31
:10143000FDC2FF30810B75760630810571F4D576DB
:10144000F8D2FA7F0F91F9EF60497FF091F9EF241C
:10145000FE60112482602124FE602524827027759D
:10146000201180177FF191F9EFC41354072450F530
:1014700021E43411F520800E7520257521008006A9
:10148000752025752150E521452060074380C275F0
:1014900075022275A60C7F01120C627F0112347C4A
:1014A000E52145207004FF12347CE52145206029A8
:1014B000E4F57575803F75A4CD7590FFF5A575A011
:1014C000FF75A60C75E102900089937F40B4DB02A2
:1014D0007FC08FE2120C80C2F822C2AFC2A8D2FA3B
:1014E0007F017E0071F8C2FA7F017E0071F8D2FAA6
:1014F0007F2D7E0071F8C2FA228F2DC2FA30810B47
:10150000752E0630810571F4D52EF8E52D4480F551
:10151000A330FFFDC2FFE4F5A330FFFDC2FFAFA380
:10152000D2FA227886E6601B18E61846600908E6BB
:101530001618700116800C7F3612247BE47886F62C
:101540000876017887E66037787CE660201223C948
:101550008F2BE52B20E00F122716E4788BF6788787
:10156000F67F3A12247BE4FD7F0E02224EE4788B54
:10157000F67F0212082BE47887F67F3A02247BC2BA
:10158000AFE5727003D2AF227FFB91F9EF700A785A
:101590008EE67005F572D2AF22787CE67002C16DDE
:1015A0001223C98F2BE52B30E002C167788D76407E
:1015B000759622C2FA30810B752C0630810571F4C4
:1015C000D52CF875A3FF30FFFDC2FF788EE670447E
:1015D000787AE630E4247894516E12348F7808518A
:1015E0004812348F7810514812348F781851488F30
:1015F000971223E8788D74FC26F6E4F5A330FFFDFE
:10160000C2FF788BA6A3E6F597788D16788B060631
:10161000788E7601788BE6547FFF788DE6FEEFC3F7
:101620009E50028002AF06C3788BE69FF6C3788D8A
:10163000E69FF6AE071FEE6012E59620E7FBE4F5A5
:10164000A330FFFDC2FF85A39780E8E59620E7FB66
:10165000D2FA122716120833788BE6700A788DE6D4
:101660006005E408F6F57212224AD2AF22E4F57260
:10167000D2AF7F3F91F97892E6FC08E6122D42E066
:101680002402788BF678897601C2FA30810B752CAA
:101690000630810571F4D52CF875A3FF30FFFDC22B
:1016A000FF788BE6166017E4F5A330FFFDC2FF78E4
:1016B00089E606FF7892122E2FE5A3F080E3D2FA96
:1016C000E4FF02082BE5167007120BE575160222DF
:1016D000E51664026002E19EAE0AE50B54C06002AA
:1016E000E19EEE146005046002E19EE50A7F013090
:1016F000E0027F18123505F54E1234FCCEC313CE2E
:1017000013D8F9F5508E4F454F700DC3E50F954E28
:10171000F550E50E9400F54F850E51850F52755327
:1017200002755404E55245516074C2FA30810B755C
:10173000550630810571F4D555F8C3E552954EF53F
:1017400052E5519400F551AF4EAE071FEE601405FF
:1017500054E554AC537002055312350E30FFFDC2F0
:10176000FF80E6C3E5529550F552E551954FF5518E
:10177000AF50AE071FEE60140554E554AC53700231
:10178000055312350E30FFFDC2FF80E6E5A260036F
:10179000120833D2FAE5A2608B120833808622AE9B
:1017A0000AE50B54C06003021863EE14600604607F
:1017B00003021863E50A7F0130E0027F1812350545
:1017C000F5561234FCCEC313CE13D8F9F5588E5704
:1017D00045577006850E57850F58850E59850F5A47
:1017E000755B02755C04E55A45596077C2FA308131
:1017F0000B755D0630810571F4D55DF8E556146012
:101800001614600B147018850AA330FFFDC2FF8503
:101810000CA330FFFDC2FF850DA330FFFDC2FF0505
:101820000DE50D7002050CC3E55A9558F55AE559BA
:101830009557F559AF58AE071FEE601CE4F5A3307D
:10184000FFFDC2FF055CE55CAC5B7002055B14F557
:10185000828C83E5A3F080DED2FAE5A260881208CC
:10186000338083120BE575160122E5214520602E99
:101870007533FF75340B7535B27BFF7A0B79A13167
:10188000FDE520C4540F24B09003A8F0E520120811
:101890003EE521C412083EE52112083E8011753351
:1018A000FF75340B7535D47BFF7A0B79C331FD128C
:1018B0002DB531B5E55E6004318280F8227574FF84
:1018C0007D017F0912224E1234BDD2AFE575601141
:1018D0001227F1122ABBE55E6004318280F8120BF8
:1018E000F512287AE57414601214601614601E1440
:1018F000603324047034120CE68039E5C930E620E8
:1019000080281213F41228DA122DF3800BE5C93067
:10191000E60E1213F41228DA31B5318251408014E8
:10192000757502800F122104800A1213F41228DA4E
:1019300031B53182E574657560AAC2ABE57524FEE8
:10194000601114602514602A2404702EC2F8120C51
:10195000D880279003BFE07003120BF5209385E435
:101960009003BFF012289F122B2112273F12289FAD
:101970008008D2F875A201123358122405857574B7
:1019800001E4E55E602EE560702A12286BE0F561E7
:10199000601974042562122872E05401F55FC3E5F2
:1019A00061955FF561756001D2C522E4900304F092
:1019B000F55EF562229003BEE0603DE55E7039742D
:1019C00003122AE674801234A4780B7C037A03791C
:1019D0009E12344D90031B7403122AE974C0123412
:1019E000A478227C037A0379AE12344DE49003325A
:1019F000F0755E019003BEF022E4F51F2212351F40
:101A0000F536AB30AA31A93212271CFF122AF27424
:101A10009E2536F582E43403F583EFF0AB33AA3428
:101A2000A93512271CFF122AF274AE2536F582E47E
:101A30003403F583EFF00536E536C3941040C32236
:101A400078A1E6B40C004002A1D0901A51F82828E1
:101A500073021A75021B1D021B32021B4E021BA2CF
:101A6000021DA3021BCE021BE9021C06021C360249
:101A70001C71021DC1900370E014604324FE605B82
:101A800014602824FE606D24046002A1D01214DAD0
:101A900075A33030FFFDC2FF30810C752F063081F9
:101AA000061213F4D52FF7D2FAD2AF1230DB12247C
:101AB00075D2ABD2AFE574B40203122DA3A11D12EF
:101AC00014DA75A33030FFFDC2FF30810C752F068C
:101AD0003081061213F4D52FF7D2FA1230DB12241C
:101AE00075D2ABD2AF9003941212AB000000017814
:101AF000A1760122E5746403701C1223C7EF20E075
:101B0000129003801212AB0000000012342A12223D
:101B10004EF1EFD2AF22309302A1CCE1EF12302090
:101B200078A17602789C06E618700106E4FFFE12A2
:101B300027D27898E67002A1D0787EE66002A1D024
:101B40007898F6D2A07F187E011227A1802F788680
:101B5000E6602F7899E66025B297E4F6900104E0FC
:101B6000B4010C900106E030E70578A1760422125A
:101B700034D650250806E618700106801178A17643
:101B800003221234D650120806E618700106E4FF4C
:101B9000FE1227D278A1760222740512349978A118
:101BA000F6221230CFC2AF12258212353712349D81
:101BB00090037312352F900374123468900372E00F
:101BC000FD1231C478A176057F5C7E01A16678990B
:101BD000E67002A1D01234EA64236002A1D0900121
:101BE00027E020E702A1D080367898E67002A1D0E5
:101BF000787EE66002A1D07898F678A17608D2A027
:101C00007F0C7E01A1BE7886E660267899E6700298
:101C1000A1D01234EAB4230E900127E030E7077810
:101C2000A176070231B5E4FFFE1227A178A176065E
:101C30002278A1760922C2AF1225DA123537900137
:101C400006E0FF789D760008A607E6FEA3E0FDEE1D
:101C500018F6ED08F612349D90010412352F90010C
:101C600005123468900103E0FD1231C41234CAA198
:101C7000BEC2A47899E67002A122B297900384B103
:101C8000E212332E900384121286E47899F6789B40
:101C9000F608F690010212329730E70BB2A7123223
:101CA00035E4FFB1ED800E90038CB1E212332E903B
:101CB000038C121286B1DFF1F6FBC31212375029E2
:101CC000900394B1E212332E9003941212861232D2
:101CD000A378A17605900376E070057F50FEA1669B
:101CE0007884E6FE08E6FF807D900376E0FFB4018D
:101CF00002807EEF6002A1D012318930FFFDC2FF69
:101D000030810C752F063081061213F4D52FF7D2CF
:101D1000FA1230DD123517B40203122DA312352743
:101D2000A1BE7886E6600578A1760A22789C06E650
:101D300018700106C3789CE6946418E69400502954
:101D4000B1DFF1F6FBC3121237501E900394B1E2DB
:101D500012332E9003941212861232C4120FF178AD
:101D6000A17605E4FFFE0227D2900376E0FFB401DE
:101D70000578A1760B22EF705712318930FFFDC232
:101D8000FF30810C752F063081061213F4D52FF722
:101D9000D2FA1230DD123517B40203122DA3123518
:101DA00027801BD2A412320C7898E66023787EE656
:101DB000701ED2A0FFB1EDE47898F61234CA022763
:101DC000A174061234997899F678A1F67F01B1EDE5
:101DD00022900388E0F8A3E0F9A3E0FAA3E0FB90E7
:101DE0000380E0FCA3E0FDA3E0FEA3E0228F30E54A
:101DF0007464026002E18F1234E12440F9741378B4
:101E00009E7C037F09122DE71234E12449F97413F3
:101E100035F0FA78AE7C037F0912319FE56A6002E3
:101E2000E103F1DF60169003A274CDF09003A47477
:101E3000D3F09003B2F09003B474CDF0E530707934
:101E400078A1E6640A6002E19E900384F1FA9003AF
:101E500098F1AFC004C005C006900398B1E21234F7
:101E60003BD006D005D004122F7DF0F1E6500812C9
:101E70002DBC122D7880F4900394B1E2FFEC4D4E0E
:101E80004F7002E18C900388F1FAFB900394A3A3B6
:101E9000A3E0C3900390F1BEC004C005C006A3B187
:101EA000E212343BD006D005D004122F7DF0F1E6CB
:101EB0004002E18C122D5F80F5F19FC004C005C087
:101EC00006B1DF12343BD006D005D004122F7DF0CE
:101ED000F1E65008122DBC122D7880F4B1D11234E5
:101EE00058F1C9C004C005C006B1DF12343BD006AA
:101EF000D005D004122F7DF0F1E64002E18C122DC6
:101F00005F80F5E56A64017012F1DF60061234B398
:101F100074CDF0900394B1E2FF805CE56A640270D6
:101F200030F1DF60061234B374CDF0E5307019780B
:101F3000A1E6640A7068900388F1FAFB900394B1FB
:101F4000E2123458F1C9802FB1D1123458F1C9804E
:101F500026F1DF600874CD1234B574D3F0E530702B
:101F60001478A1E6640A7036900384F1FAFB9003BA
:101F700098F1B08002F19F7B017A0379A7122F8537
:101F8000B1DFFF7B017A0379B7122F85022DB512DD
:101F900023C7EF20E00612342A12224ED2AF22903D
:101FA0000384E0F8A3E0F9A3E0FAA3E0900380FB48
:101FB000E0FCA3E0FDA3E0FEA3E0C390038C9BFF45
:101FC000EE9AFEED99FDEC98FCE0F8A3E0F9A3E0B1
:101FD000FAA3E02FFFEA3EFEE93DFDE83CFC22903B
:101FE0000376E06401229003C0E0FFC394102290C6
:101FF00003707405F022FF900394E0F8A3E0F9A3C6
:10200000E0FAA3E022E4F51E22E509243BB40E0029
:10201000507C90202075F003A4C58325F0C5837300
:1020200002204A02204E02205802205302205D0264
:10203000206402206902206E0220720220760220B3
:102040007B02208202208602208AF1ED8043123337
:1020500081803E1229998039122A4D8034E4FF1282
:102060000C91802D1216C5802812179F8023915540
:10207000801FB12D801B1233638016AF0B120C62D0
:10208000800F11BB800B11958007D123800375163B
:1020900004531FFE22E478ACF611B430810330CF34
:1020A000FA20810330CFFAC28775A30230FFFDC248
:1020B000FFD2FA2211F8C2FAD287227E007F087D71
:1020C000007B007A0079A51212DC78A676000876EB
:1020D00040087600087640910511B430810330CF76
:1020E000FA20810330CFFAC28775A30130FFFDC209
:1020F000FFD2FA78AC760122C2CAE4F5CCF5CDC2A3
:10210000CFD2CA2278ACE670024142913F30E00261
:10211000219C78AAE6FE08E6FF4E6072C3EF944069
:10212000EE9400400C752F0075304078A576018044
:10213000088E2F8F30E478A5F6C378ABE69530F69D
:1021400018E6952FF6C2AF78A8E6FE08E68E31F5C0
:1021500032E5301530AE2F7002152F4E601F759688
:1021600022853282853183E0F5970532E5327002AF
:102170000531E53130E202514371E880D4D2AF78C5
:10218000A8A63108A63271EEE4FD7F0E414E78A577
:10219000E6600971EE514AE478A5F622C378ABE611
:1021A000948018E694034002413BC2AF11B43081E1
:1021B0000330CFFA20810330CFFAC28775A30330F2
:1021C000FFFDC2FF30810330CFFAE4F5A330FFFDFD
:1021D000C2FFAFA3752F008F3078ABE53026F6181D
:1021E000E52F36F678A7E624FFF53218E634FFF53A
:1021F00031E5301530AE2F7002152F4E6022E4F518
:10220000A30532E53270020531E53130E202514377
:1022100030FFFDC2FF853282853183E5A3F080D196
:10222000D2FA0532E53270020531E53130E2025171
:102230004378A6A63108A632D2AF227FE87E0312E9
:1022400013F82275310075324022E4FD7F0EC2AFD3
:102250008F968D9771E8D2AF22787DE6607C08E694
:102260006005788AE66073788CE6701471DB7F1401
:1022700071D1EF30E0087F1671D1788CA607514AF2
:10228000788AE67055788CE6605071C3787BEFF6FB
:1022900030E009789412129200000000E4787FF692
:1022A00008F678837601787BE630E40971C3788F8D
:1022B000A607788C1671C3788AA607788C161678CC
:1022C0007BE6540A7008788AE6D3943D400CC2AF8E
:1022D000C2A0C297C2A4C2A780FE7883E670026142
:1022E000B87880E61846600261AF7883F67886F6A3
:1022F000787DE66017787BE630E5047F36917B7861
:102300007BE630E405788FE6D11ED198C2A0787EB6
:102310007601C2FA30810C752D063081061213F455
:10232000D52DF775A33B30FFFDC2FFE4F57375A310
:102330003530FFFDC2FF75A37F30FFFDC2FF788AF5
:10234000E6F5A330FFFDC2FF7888E6F52B788AE634
:10235000F52C787DE6602E71DB8018AF2C152CEF04
:102360006016E59620E7FB8597A330FFFDC2FFE5E9
:102370002C60E87596A280E3E4788CF6FD7F14511A
:102380004E514A801AAF2C152CEF6013AF2B052B42
:102390007890122E2FE0F5A330FFFDC2FF80E67883
:1023A00088A62BE4788AF6D2FAFF1232D580097813
:1023B00080E6161870011622E5736006E4F573785E
:1023C0007EF6227F22800AC2AF7D027F0E514E7FB1
:1023D00011C2AFEF914FAF97D2AF227D027F0E4176
:1023E0004EC2AF75960E8F97E59620E7FB227B01D4
:1023F0007D117F028D338B3471E18533968534975F
:1024000071E8D2AF227B0871F0913F20E3FB7B089B
:1024100071F0913F20E3FB91477D14914120E4F955
:1024200091477D14914120E4F9E4FD7F0E414E8DEA
:102430003371E1E533914F859733D2AFAF33227DCE
:10244000117F02912FEF227B107D147F0280A54423
:1024500080F5968093E50B450A60159105F13F786C
:102460007D7601187601D2ABD1981234BDD2A82264
:10247000C2ABC2A822C2AFB11A7F33F1253081109E
:10248000A87976063081091213F4A87916E670F45B
:10249000A87908E6F5A330FFFDC2FFD2FA05790559
:1024A000792278A3E6FE08E6AA06F97BFFB1F6904A
:1024B0000372E0FD7F091579A879A605F125308121
:1024C00010A87976063081091213F4A87916E670FF
:1024D000F4A87908E6F5A330FFFDC2FFA879080843
:1024E000E6F5A330FFFD9199057922E0FD7F069185
:1024F000B67D057F0791B67D187F1891B67D0C7F5C
:102500001791B67D007F2591B67D067F0291B67D3D
:102510003D7F0691B6C289D2A82291A27D007F0A92
:1025200091B6F1307534087F3EB19280C4787AA6B6
:102530000DE50D30E048E630E20A7F36917BAD0CC8
:102540007F0A91B6787AE630E117789412126EC35A
:10255000E50B9F7885F6E50A9E18F6788676018069
:1025600010E50B450A600A7884A60A08A60B0876CF
:1025700001E47887F6788EF6D1987F3480027F3632
:10258000817B91A2D11A90037391EBF130753408DD
:102590007F3E8F308B318A328933C2FA30810C759D
:1025A00035063081061213F4D535F7E5304440F591
:1025B000A330FFFDC2FFAF341534EF601AAB310515
:1025C00033E533AA327002053214F9121017F5A35D
:1025D00030FFFDC2FF80DFD2FA227B017A01790849
:1025E00091ADD11A90010491EB7B017A01791E75AE
:1025F00034087F3E809C12351FF533AB30AA31A9D9
:1026000032853382F11FFDE53390132A93FF91B693
:102610000533E533C3941640E222900372E0FD7F58
:102620000A81B6E516700E751001F511F512120B40
:10263000EE75160222E5166402705C11B430810357
:1026400030CFFA20810330CFFAC287E4F5A330FF00
:10265000FDC2FF30810330CFFAE50F2402F5A3302D
:10266000FFFDC2FF20810330CFFA850DA330FFFDAF
:10267000C2FF850FA330FFFDC2FF900000E50F15DC
:102680000FAE0E7002150E4E600BE0F5A330FFFD8D
:10269000C2FFA380E8D2FA22C2FA30810C752E065E
:1026A0003081061213F4D52EF775A30630FFFDC254
:1026B000FF75A33D30FFFDC2FF75A38730FFFDC24C
:1026C000FFE4F5A330FFFDC2FFAFA375A30730FF02
:1026D000FDC2FFEF4404F5A330FFFDC2FF75A388E0
:1026E00030FFFDC2FFE4F5A330FFFDC2FFAFA375CD
:1026F000A30830FFFDC2FFEF54CD4405F5A330FF22
:10270000FDC2FF75A30230FFFDC2FF75A30630FFB7
:10271000FDC2FFD2FA227D017F11414E85368275BE
:1027200083000210301579A879A6071579C2FA221C
:1027300078A4E62418FF18E436FAA9077BFF227F65
:10274000217B007A00797A123205C2AB758D60E484
:10275000F58BFB7D047F01EF70055389FC8006BF7C
:1027600001065389CFEB4289EF7013EDD3940340F8
:1027700005438E048005538EFBF194D28C22BF0159
:1027800012EDD394034005438E088005538EF7F174
:1027900094D28E22752FFCE58E522FE52F4DF58EAB
:1027A00022F1C5E5314530600D7884A63008A631A8
:1027B000087601E408F6C2AF7F34917BE4F57278C5
:1027C0008EF6D2AF228E308F31C2AF7F36917BD260
:1027D000AF22F1C57888760178901230C6E0788A09
:1027E000F6787FA63008A6317883760122850D75AC
:1027F00022758C96858C8A7B027D04E4FFF157E478
:10280000F5C143C18043E601E4F55EF560F562225F
:10281000C0E0C083C082C0D075D000C007E5C054FE
:10282000F02480602224C0600D24E07031116BE040
:10283000F5C2C2C58028E55F70241561E5616019A5
:10284000116BE0F5C28017AF611561EF6009116B84
:10285000E5C2F0D2C18007C2C1D2C4756000C2C057
:10286000D007D0D0D082D083D0E032AF620562747E
:10287000042FF582E43403F58322E478AD1194F655
:1028800008F69003D6F075BC3C75BA1F75D108D216
:10289000EED2EF22F608F608F608F608F60822E46B
:1028A000789B1194764008F608760B08760808762F
:1028B000D378907600087600087601087602121F19
:1028C000EFA314F0A37401F0A3743DF0A3740AF015
:1028D000A37402F0E4A3F0F5A2229003D6E0146002
:1028E0007A147002217424026002219875BB09C217
:1028F000EDD2EC30EDFD78B2E608F6AFBEEFD39442
:1029000060400AEF947B50051876038037EFD3942C
:10291000A4400BEF94BF500678B276048026EFD324
:1029200094C4400BEF94DF500678B276018015EF27
:10293000C39400400BEF943D500678B276028004B9
:10294000E478B2F678B2E6FF0866700280027F0093
:1029500078B1A6079003D67401F022A295E43378EB
:10296000B0F67F002093027F0178AFA6079003D6D0
:102970007402F02275BB06C2EDD2EC30EDFDAFBEA5
:10298000EFF8E479AEF7E819F7AFBD78ADE6F608F1
:10299000E64FF6E49003D6F022E50D14605814706B
:1029A00002412124026002414CE5167010751001AD
:1029B0007511037512D7F5137514084140E51664B7
:1029C000026002414C9003D7E0FF9003DBE0FE3051
:1029D000E005EF13B39297EE30E106EFA2E1B39278
:1029E000A0EE30E206EFA2E2B392A7EE30E35DEF95
:1029F000A2E3B392A422E516701BE50F6420450EF6
:102A00006002802C75100175110375129E751300FC
:102A1000751420802BE516640270319003BE04F01B
:102A200022E516701FD3E50F9464E50E9400400470
:102A300075160422751001751103751204120BEE40
:102A400075160222E516B40203755E0122E50D2417
:102A5000FD601B146029240270607404250BF9E4E6
:102A60003403751001F5118912120BEE80497510AF
:102A7000007511007512AD75130075140780387557
:102A80001000751100751208751300751404AB1051
:102A9000AA11A912E58012107FAB10AA11A91290F9
:102AA0000001E590121091900002E5A012109190A3
:102AB0000003E5B012109175160122C2A31208336B
:102AC000D2A3E49003BEF0740751E6A3740CF0A304
:102AD0007421F0A374A0F0A37407F0A37424F0E4AD
:102AE000A3F0755E0122900304F0A37476F0E4A3D2
:102AF000F022BF24047F828027BF40047F80802093
:102B0000EF70047F9B8019EFD3941F4013EF945B09
:102B1000500EEF64246009EF6440600474802FFF5E
:102B2000227A03799EB1497A0379AEB149B1D6E5EB
:102B30006924FA600C2406701690039E7430F080AD
:102B40001490039E7412F09003BD7420F0800690E0
:102B5000039E7422F0E4F53074C02530F582E4342D
:102B600003F583E0FF51F274A02530F582E43403CD
:102B70009111940D40E2E5696404702FF530900BDB
:102B800016E4B19675F00AA424F9F582E43409F547
:102B900083E5822530D136E493FF51F274A72530C6
:102BA000F582E434039111940740D39003CEE0FF03
:102BB0006402605BEF700EA3911EFF7E007C037DBC
:102BC000B291298034E4F530911B75F00AA47C00A1
:102BD0002530FFEC35F0FE9003D4E0FCA3E02FF5A8
:102BE00082EC3EF583E493FF51F274B22530F58216
:102BF000E434039111940940CF911BB18C400690AD
:102C000003B07410F0B18350069003BA7420F0A1A1
:102C1000B5F583EFF00530E530C3229003CFE0FB3C
:102C2000A3E0FAA3E0F90210178E318F328C338DB6
:102C300034E4F536F537F538753927753A10E5324D
:102C40004531700A7F3091A270020533A14175357C
:102C500005AF351535EF6049AC39AD3AAE31AF321D
:102C60001210C58E378F38E5367006E53845376067
:102C70001F753601AE31AF32AC39AD3A1210C58C8A
:102C8000318D32E5382430FF91A270020533B14115
:102C9000AE39AF3A7C007D0A1210C58E398F3A806A
:102CA000B02251F20534E534AC33228F30B1D6E591
:102CB0003024FE601614601D14604224036002A1DB
:102CC00040E569D394004078156922E569C394060C
:102CD000506E0569229003CEE064026063A3911EEA
:102CE000B18C405CE569B4020DEFB43D0474208002
:102CF00044EFC313803FB154F974FF80409003CE7A
:102D0000E0B40218E56964067036900B84B19690C1
:102D1000037070047402F0227401F022911BFFB161
:102D200083501DE569B40210EF25E012107F911B5E
:102D3000B4400D743D02107FB154F9740112105D5E
:102D40002214F5828C83EFF0227E007F107D9B7B26
:102D5000010212DC9003CFE0FBA3E0FAA3E02274AF
:102D60005F2FF582E43403F583E0FF51F29003C056
:102D7000E024AEF582E43403F583EFF09003C0E085
:102D800004F0229003D3E0FEEFC39E22FF9003D213
:102D9000E0FEEFD39E2293FB740193FA740293F941
:102DA0000210177533FF7534137535197BFF7A13CD
:102DB00079081219FD9003BE7401F022745F2FF59B
:102DC00082E43403F583E0FF51F29003C0E0249ED7
:102DD000F582E4340322E56975F016A42407F9743A
:102DE0000B78C07C037F1635F0FA7BFF7D017E00F7
:102DF000020FF178B1E6F52F900370E0B40513E50A
:102E00002F65676009AF2F91AB7121E4F56A852FBB
:102E10006722E52F65686013E52FB40104156A8009
:102E200007E52FB40202056A536A03852F6822E67C
:102E3000FC08E68C832FF582E43583F58322F16B61
:102E4000F162EC4D4E4F7002E151AB34AA33A9321E
:102E5000A831D31212374002E151753C30753D3034
:102E6000753E30753F30754030E4FFFEFDFCF15C8F
:102E70006061F162F15C700E754031753F30753EF6
:102E800030753C30804D753C2DE540643070448594
:102E90003F40853E3F853D3E753D30F1747B0AFAEB
:102EA000F9F812111AF16BF162AB34AA33A932F1BD
:102EB0005C401C053DE5349538F534E5339537F530
:102EC00033E5329536F532E5319535F53180D80563
:102ED0003C80B67405253DF53DE4FF743D2FF8E6D2
:102EE000C3943A400616743E2FF8060FBF03ECF168
:102EF00055AA3A7002053A14F9E540F152AA3A701F
:102F000002053A14F9742EF152AA3A7002053A14E5
:102F1000F9E53FF152AA3A7002053A14F9E53EF19B
:102F200052AA3A7002053A14F97465F152AA3A703D
:102F300002053A14F9742DF152AA3A7002053A14B6
:102F4000F9E53CF152AA3A7002053A14F9E412107C
:102F50007F2212107FAB39053BE53B22A831C3022B
:102F60001237AF38AE37AD36AC35228F348E338D55
:102F7000328C3122AF34AE33AD32AC3122D13E90FF
:102F800003C0740922F16B8B358A36893775390194
:102F9000E4F53AF53B753F40753E42753D0FF53C13
:102FA000F5381234F3F1741211A58E3A8F3BE53BDC
:102FB000453A7004E5397027E4F539F1741234F3B9
:102FC0001211A5AC00AD01AE02AF03F16BE53B24DD
:102FD000B0AB35AA36A937853882758300801CE5E9
:102FE00038AB35AA36A937B40609F5827583007463
:102FF000B0800885388275830074A0121091AF3FAD
:10300000AE3EAD3DAC3CE47B0AFAF9F81211A58F57
:103010003F8E3E8D3D8C3C0538E538640770832239
:1030200011CF742331A8900373E0FD900002F0905B
:103030000374E0900003F011C47416789D11BF74FE
:103040001793FB789EE618F6EB11C27420789F1157
:10305000BF742193FB78A0E618F6EB08F6EDC39455
:103060003D900373E0500DC4540F24FFFFE434FF80
:10307000FE188008C4540FFF7E00789FE6FC08E627
:10308000FD1210B3789EEF26F618EE36F6789DE620
:10309000FC08E6FDEC900004F0AF05A3EFF078A388
:1030A000E6FE08E6AA06F978067C007F16319F1234
:1030B0002730781C7C007D017E007F08020FF19391
:1030C000760008F678A3E6FE08E6F5828E83229065
:1030D0000371E0FF900375E0FD8009317A90037180
:1030E000E0FFE4FDEF14602414603B1460522403FD
:1030F0007068ED601175F022A424DEF582E5F034ED
:1031000039AF82FE806C7E087F4B8066ED60117562
:10311000F022A42444F582E5F0343AAF82FE800424
:103120007E087F6D804CED601175F022A424AAF515
:1031300082E5F0343AAF82FE80047E087F8F8032D1
:10314000ED601175F022A42410F582E5F0343BAF58
:1031500082FE80047E087FB18018ED601175F02238
:10316000A42476F582E5F0343BAF82FE80047E082D
:103170007FD378A3A60608A607227E007F1F7D00C6
:103180007B017A03797F0212DC789DF608F6789845
:10319000F608F6317AC2AFC2A8C2FA75A330227B14
:1031A000FF7D017E00020FF1900000F0900372E0BD
:1031B000900001F022740231A8A37401F07F0A7E0E
:1031C000000227D2900000EFF0A3EDF07F097B0111
:1031D0007A00790251059000047401F07530007591
:1031E000310B12097E74002531F58274003530F5FB
:1031F00083EFF00531E53170020530C39402E5300C
:10320000940140DE227E007D000212DC75300A123D
:10321000097E78A2E6FE2400F582E43400F583EF0F
:10322000F0900373E0FFEEB50704760B800378A2FD
:1032300006D530DB2278997C037A017904518E120D
:103240000FF178897C037D017B017A0179077E008B
:103250007F03120FF178917C037A01790A518E1263
:103260000FF190037FE02403F582E43401F583E05D
:10327000FF90039CE4F0A3EFF090037F5197FD9043
:10328000039DE0FFED90039CCFF0A3EFF0227D01C2
:103290007B017E007F0322E02404F582E43401F503
:1032A00083E02251C4120FF17A03798578057C00FE
:1032B00051CC120FF17A03798D7B0178087C005193
:1032C000CE020FF17A03799578027C007B017D01B3
:1032D0007E007F0322EF70047898760122C0E0C060
:1032E000F0C083C082C0D075D000C000C001C00251
:1032F000C003C004C005C006C007758D60758B0093
:10330000789412126EEF712E789412127A1222595A
:10331000121523D007D006D005D004D003D002D098
:1033200001D000D0D0D082D083D0F0D0E0322401C0
:10333000FFE43EFEE43DFDE43CFC22C0E0C0D0756D
:10334000D000C000787EE660057573018003757259
:1033500001D000D0D0D0E032E478ACF6F5C8F5CAA0
:10336000F5CB22E5167019900370E0B405127510C4
:103370000175110375127075130075140775160227
:103380002275100075110075127475130075140103
:1033900075160122C2FA30810C757706308106124B
:1033A00013F4D577F775A33D30FFFDC2FFD2FAAF16
:1033B000A322C2FA30810C7578063081061213F40C
:1033C000D578F775A3BD30FFFDC2FFD2FAAFA322B7
:1033D0008B6F8A708971ED6026430780E4FEEEC32F
:1033E0009D501CC2AF8F961223E8AB6FAA70A971D3
:1033F0008E82758300E597121091D2AF0E80DF2286
:103400008B318A328933ED6020E4FEEEC39D501982
:10341000C2AF8F96AB31AA32A9338E8212271FF525
:10342000971223E8D2AF0E80E2227B017A03797FE4
:103430007D1F7F2291007D017F1122F5388E378D0F
:10344000368C35753901753A03753B68227D017BF1
:10345000017E007F10020FF1C39BFFEE9AFEED99F3
:10346000FDEC98FC900390227F02FEFDFCE0F9F851
:1034700012125B900380121286AF0322120C6512A7
:10348000138878207C007D007E007F02020FF18F80
:10349000971223E8789402126E900370F0E4789B00
:1034A000F608F622A3F0A37412F0A37476F0A374C6
:1034B00040F02274D390039EF09003A022D288E5BE
:1034C000E454F04406F5E4C2A82278A1760A789D77
:1034D000E6FE08E6FF22C3789CE6940518E6940011
:1034E00022E56A25E075F009A422B297E4F690017E
:1034F00002E022AB3FAA3EA93DA83C227E00E50B9C
:10350000543C780222EF14F5A2E50B54032214F583
:10351000828C83E0F5A32212251AD2AFE574228BA8
:10352000308A318932E42278A17606E4FFFE22E077
:10353000FB90037FF0E4227F3312247BD2AF22FF83
:10354000FFFFFFFFFFFFFFFFFFFFFFFFFFFFFFFF8B
:10355000FFFFFFFFFFFFFFFFFFFFFFFFFFFFFFFF7B
:10356000FFFFFFFFFFFFFFFFFFFFFFFFFFFFFFFF6B
:10357000FFFFFFFFFFFFFFFFFFFFFFFFFFFFFFFF5B
:10358000FFFFFFFFFFFFFFFFFFFFFFFFFFFFFFFF4B
:10359000FFFFFFFFFFFFFFFFFFFFFFFFFFFFFFFF3B
:1035A000FFFFFFFFFFFFFFFFFFFFFFFFFFFFFFFF2B
:1035B000FFFFFFFFFFFFFFFFFFFFFFFFFFFFFFFF1B
:1035C000FFFFFFFFFFFFFFFFFFFFFFFFFFFFFFFF0B
:1035D000FFFFFFFFFFFFFFFFFFFFFFFFFFFFFFFFFB
:1035E000FFFFFFFFFFFFFFFFFFFFFFFFFFFFFFFFEB
:1035F000FFFFFFFFFFFFFFFFFFFFFFFFFFFFFFFFDB
:1036000066E4F5C143C18043E601E4F561F563F585
:103610006522E478ABF612372130810330CFFA20EF
:10362000810330CFFAC28775A30230FFFDC2FFD2FB
:10363000FA227E007F227D007B007A0079781217C3
:1036400061C2AB758D60E4F58BFB7D047F010231B7
:1036500066E5167019900370E0B4051275100175D7
:103660001103751270751300751407751602227D0B
:10367000057F071232FC7D187F181232FC7D0C7F0B
:10368000171232FCE4FD7F250232FC8D368B37C2E7
:10369000AF75960E8F9712377E85369685379712BF
:1036A000377ED2AF22E50B450A6010122F09123681
:1036B00032787B7601187601D2AB22C2AB2275102C
:1036C00000751100751275751300751401751601DA
:1036D0002278B2792AE581942AFA09E708F6DAFA1B
:1036E000888122751001751102751204850E1385EB
:1036F0000F14227402121E07A37401F07F0A7E00C9
:10370000023472AF65056574042FF582E43403F565
:1037100083227E007F1F7D007B017A03797F021761
:103720006112373FC2FAD2872275340075354022C4
:10373000C2AFEF4480F59612377EAF97D2AF22C268
:10374000CAE4F5CCF5CDC2CFD2CA22C2AF8F968DD6
:103750009712377ED2AF22E478ABF6F5C8F5CAF5FA
:10376000CB22EF70047898760122540F24B0A3F096
:1037700022016A00016B00007F2212373022E59699
:1037800020E7FB22E4F51F22E4F51E22850D7622B8
:1037900022333135204D487A202000343333204DF8
:1037A000487A202000383638204D487A20200039C9
:1037B0003135204D487A202000322E342047487A77
:1037C0002020003220202020202020200034202013
:1037D00020202020202000382020202020202020F1
:1037E00000313620202020202020003332202020CD
:1037F00020202020003634202020202020200031CE
:103800003238202020202020003235362020202071
:10381000202000353132202020202020003130327D
:103820003420202020200032303438202020202056
:103830000034303936202020202000383139322021
:10384000202020200031363338342020202000333F
:1038500032373638202020200036353533362020C8
:1038600020200031333130373220202000323632F0
:1038700031343420202000353234323838202020B2
:103880000031303438353736202000534C4156450E
:1038900020202020004D4153544552202020004636
:1038A0005245512042414E44202020200001010376
:1038B0007100043791534554204944202020202092
:1038C00020200000010372010700005041434B45D6
:1038D00054204C454E475448000001037310FF002C
:1038E0000023204F46205041434B455453200001B4
:1038F000010374001337C350524553455420202010
:103900002020202000000103750003000053454CD7
:10391000454354204D4F44452020000101037600CB
:1039200001388B53544152542050455220202020BE
:103930000002000000000000002020576169746947
:103940006E6720666F72202020002020636F6E66F5
:1039500069672064617461202020000D0E0F101132
:103960001213140B15191A1B1D23242621221C2C9B
:103970002DD0C5D2A0D320CDBAA022A0A0A0CD200A
:10398000D3BAA0CD20D3A0D3C5CED4A022A0A0A0CE
:10399000CFC6A0A0A0CD20D3A0CCCFD3D4A022A0AE
:1039A000A0A0CFC6A0A0A0D320CDA0CCCFD3D4A020
:1039B00022A0A0A0CFC6A0A0A043686970636F6ECC
:1039C0002043433030303020200050726573732024
:1039D0005331202D3E2050455220004368697063CA
:1039E0006F6E205352463034454220004E6F2045C2
:1039F0004D206465746563746564212000FFFFFFDA
:103A00000C1D89F5830332090615166C0391E90A2A
:103A10001F561040883103F76000000000000000CE
:103A200002150C1D89CA830332090635166C4391B1
:103A3000E90A1F5610408831008F60000000000026
:103A4000000000110C1D890E3B7342090D001D1C66
:103A5000C7B0EA0A1FB61000883100756000000088
:103A600000000000000110A762F58303320906156B
:103A7000166C0391E90A1F561040883103F7600065
:103A8000000000000000021510A762CA830332097B
:103A90000635166C4391E90A1F5610408831008F95
:103AA0006000000000000000001110A7620E3B73D0
:103AB00042090D001D1CC7B0EA0A1FB6100088316C
:103AC000007560000000000000000001216276F532
:103AD000830332090615166C0391E92A1F5610401C
:103AE000813503F78E0000000000000002152162FE
:103AF00076CA830332090635166C4391E92A1F56AC
:103B000010408135008F8E00000000000000001181
:103B10002162760E3B7342090D001D1CC7B0EA2AD4
:103B20001FB61000883100758E00000000000000F4
:103B3000000123313BF5830332090615166C03910E
:103B4000E92A1F561040813503F78E00000000005F
:103B50000000021523313BCA830332090635166C77
:103B60004391E92A1F5610408135008F8E000000D6
:103B700000000000001123313B0E3B7342090D0091
:103B80001D1CC7B0EA2A1FB61000883100758E00D0
:103B900000000000000000015D93B1868303320B3A
:103BA0000844166C0391A90A11561040813502355C
:103BB000FE00000000000000010B5D93B12D3B737F
:103BC000320B09001D1CC7B0EA0A11B6100088317B
:103BD0000077FE0000000000000000035D93B10EBE
:103BE0003B73420B0C001D1CC7B0EA0A19B610400B
:103BF00088310075FE000000000000000001FFFF9A
:103C0000FFE50A24FE601914606B2402600281AD96
:103C10007510FF75110075127E90007EE49381A6E9
:103C2000E5226031900849E493FE740193FF240E6D
:103C3000FDE43EA9057510FFF51189128F828E8370
:103C4000741193FE900849E493FC740193F5828CFF
:103C500083741080137510FF751100751290900019
:103C600093E493FE900092E4937C002400F514EC1E
:103C70003EF513803BE50B14601214601A240270A9
:103C80001F7510FF7511007512A280147510FF7555
:103C900011007512A680097510FF7511007512BC10
:103CA0001205121200CE751300F514800375160468
:103CB000E51664046014D3E514950FE513950E40E2
:103CC00006850E13850F1475160122C2AF53D77FD8
:103CD000E50B450A601C7FD07E070000EF1F7001D6
:103CE0001E144E70F5E50B150B7002150A14450AEB
:103CF00070E475EF1022E50F7004E50E64027F0199
:103D000060027F048F16E50D25E07510FFF5117533
:103D1000120075130275140022E516702EE523605B
:103D200008E50D641D450C700AE50F7004E50E648E
:103D30000260047F0480027F028F167513027514DF
:103D40000075100175110075120022E516640270ED
:103D500055E50D7F0025E0FE43EF02C2AF758F03EE
:103D600075B7A575B7F18F82F583E4F0758F017C87
:103D7000007D00752702F528E5281528AA2770027E
:103D800015274A601C75B7A575B7F18D828C83E045
:103D90008F828E83F00FBF00010E0DBD00010C80DD
:103DA000D7E4F58FD2AF22FFFFFFFFFFFFFFFFFF3A
:103DB000FFFFFFFFFFFFFFFFFFFFFFFFFFFFFFFF13
:103DC000FFFFFFFFFFFFFFFFFFFFFFFFFFFFFFFF03
:103DD000FFFFFFFFFFFFFFFFFFFFFFFFFFFFFFFFF3
:103DE000FFFFFFFFFFFFFFFFFFFFFFFFFFFFFFFFE3
:103DF000FFFFFFFFFFFFFFFFFFFFFFFFFFFFFFFFD3
:00000001FF
