:1000000002015402080301000000FF02080BE4FF94
:10001000C126FF0208137F01C126FF02081BFFFF54
:10002000FFFFFF020823FFFFFFFFFF02082BFFFF78
:10003000FFFFFF020833FFFFFFFFFF02083BFFFF48
:10004000FFFFFFA120E59620E7FB2202084BFFFF00
:10005000FFFFFF020853FFFFFFFFFF02085BFFFFE8
:10006000FFFFFF020863FFFFFFFFFF02086BFFFFB8
:10007000FFFFFF020873FFFFFFFFFF02087B120173
:10008000100100000040A01120EB07C00102000198
:100090000902120001010040320904000000FFFFC4
:1000A000FF000403090416034300680069007000A0
:1000B00063006F006E0020004100530018035300DE
:1000C0006D00610072007400520046003000340080
:1000D00045004200BB010689828A83E0225002E784
:1000E00022BBFE02E32289828A83E49322BB010CB5
:1000F000E58229F582E5833AF583E0225006E92579
:1001000082F8E622BBFE06E92582F8E222E5822992
:10011000F582E5833AF583E49322BB010689828A5E
:1001200083F0225002F722BBFE01F322F8BB010D3F
:10013000E58229F582E5833AF583E8F0225006E965
:100140002582C8F622BBFE05E92582C8F2228A83F1
:100150008982E473787FE4F6D8FD75812A02016014
:1001600053D9BF75E10775E2C17580F875A0F775C1
:10017000A41D75A59075A6B975F2BB75F3FD75D470
:10018000C075D54C75D602123C015109D2AF2093EF
:10019000073095047F0180027F008F2AE52A6005E1
:1001A000E4F522801C900846E493B4E110A3E493A4
:1001B000B48C0AA3E493B464047F0180027F008FAF
:1001C00022E522601AE5EF7F0020E4027F018F2301
:1001D0009008499194740493FE7405D1038007E458
:1001E000F523F520F52143E60243E602E5C930E6B2
:1001F00013E52A70FC30930C209509E5237005E582
:10020000C920E6EDD1950208007D087F0151407DAF
:100210000F7F0751401D7F0951407D047F0B5140E6
:1002200075D7C043D7207D807F0F5140E4FD7F010B
:10023000800E7F0E51407D847F1251407D807F155E
:10024000C2AF8F968D971145D2AF22E5156402603B
:1002500014E50D450C700EE50F450E7008E50B54C6
:10026000FE450A600475160422E50B602775150427
:10027000E4FF51997D017F0E51407D047F12514072
:10028000E4FD7F1551407D0251327D035132E4FD82
:100290007F0E80AC7515037F038F178F188F198F12
:1002A0001A8F1B8F1C22E4FD7F0E51407F11B1BBC2
:1002B0008F25E52530E4047D809189E52530E20431
:1002C000E4FD9189E516640270497F16B1BB8F2663
:1002D000B119AD267F20B1E3AF267E00C3E5149FA0
:1002E000F514E5139EF513EF2512F512EE3511F511
:1002F00011E51445137010E509243F7005123D39CE
:100300008002916CE4F516E51445137D4860027D8A
:10031000408160E516B405028169E5166002811925
:10032000E52520E00281197B007A0079087D087FAD
:1003300020B1E3E50BFE7C00E4250AF50BEC3EF56D
:100340000AE50DFEE4250CF50DEC3EF50CE50FFE7F
:10035000E4250EF50FEC3EF50EE50854E024E070C0
:100360000261F924E0606224C0603924E070026117
:10037000F924E0606F24C0600261FDE50914601893
:1003800024FE601024FA601424FE60142406706DAC
:10039000F114806C11168068110E8064514B8060DE
:1003A000F1C5805CE50924FA601024FE601124FE8A
:1003B0006011240A7011F1498046123C218041D11C
:1003C000D9803DD1AB80398034E509243D600C14DF
:1003D000600D24037023123D398025D195802112B0
:1003E0003CEB801CE5092440600924FE7009123DA5
:1003F00016800D919F80098000916C800375160412
:10040000E51664056065E5166406605FE5167D40E7
:10041000B404027D607F115140E51664017045759A
:100420002502C3E5149440E5139400500585142675
:100430008003752640C3E5149526F514E513940052
:10044000F51345147005432508F516B119AD267F3F
:1004500020D109E5262512F512E43511F511AD2557
:100460007F114140E516B40602916C22E522601529
:10047000E5236011431F019191740893FE74099361
:10048000AA06F9214E751604227F115140E4F51693
:1004900022900849E493FE740193F5828E8322E54D
:1004A0000D450C7072F510751100751208F5137575
:1004B0001408751601B119E521311AB1199000011E
:1004C000E520312CE52260089191740193FF8002B0
:1004D0007F00900002B1D060079191E493FF800209
:1004E0007F00900003B1D060089191740393FF8066
:1004F000027F00900004B1D060089191740293FFD4
:1005000080027F00900005EF312C900006E523313A
:100510002C900007E4212C816CAB10AA11A91222A7
:10052000C0E0C0F0C083C082C0D075D000C000C0A1
:1005300001C002C003C004C005C006C0077F06B1E9
:10054000C9601730E202B1D6E524421DE5226050B1
:100550009191740693FE740780447F02B1C96022B2
:1005600030E0055324FE51A6E524421FE51F60300C
:10057000E522602CE52360289191740A93FE740BA8
:10058000801C7F04B1C96018421EE51E6012E5227E
:10059000600EE523600A9191740C93FE740DD103F3
:1005A000D007D006D005D004D003D002D001D000AF
:1005B000D0D0D082D083D0F0D0E032C2AFEF448030
:1005C000F5961145AF97D2AF22B1BB8F24E5242217
:1005D000EF312CE52222751502E4FD7F01918B7F1E
:1005E000034199D18D601B430780E4FEEEC39D500B
:1005F00011C2AF8F961145D19FE597312CD2AF0E26
:1006000080EA2293AA06F9214ED18D6018E4FEEE0D
:10061000C39D5011C2AF8F96D19F11EDF597114533
:10062000D2AF0E80EA22AE07E50F450E705BE515EE
:1006300064026055E515B40308E50D450C600280C1
:1006400048E508541F24FE7040E50B703FAC0DECEC
:100650005403FD7F0E5140EC30E710547F2403FC1F
:10066000EE7D4060027D107F118009EE7D8060028A
:100670007D207F145140EE7F0060027F0374162CB2
:10068000F8A607E4FD7F0E4140751604228B278AE9
:10069000288929ED22E5237005C2AF75230122AB1D
:1006A00027AA28A9298E8275830022E515B404198A
:1006B000E508B48114E50B450A700EE50D450C7094
:1006C00008E50F6401450E600475160422F10A75F1
:1006D000130075140175160122E50B450A700EE52D
:1006E0000D450C7008E50F6401450E600475160495
:1006F00022E515B4040B7510FF7511007512068004
:1007000007E515B40302F10A80C57510FF751100E5
:1007100075120822E50D450C700FE50F450E7009A6
:10072000E50A7005E50B30E70475160422AD0BE40D
:10073000FF5140E50B6009E515B4020C7515032265
:10074000E515B4030375150222E50B450A700CE5A7
:100750000C7008E50F6402450E600475160422E56E
:1007600008247F600D14601924027046E50D600DA9
:100770008040E515B40404E50D60028035F10A807F
:1007800034E515640460028029E50D547FFFE50D12
:1007900030E7030F0F0F74162FF8E67BFFB4030644
:1007A0007A00790680047A0079088B108A11891200
:1007B0008003751604E5166404600975130075144A
:1007C0000275160122E508B40112E50F450E700C02
:1007D000E50B450A7006E50D450C6003751604220D
:1007E000FFFFFFFFFFFFFFFFFFFFFFFFFFFFFFFF19
:1007F000FFFFFFFFFFFFFFFFFFFFFFFFFFFFFFFF09
:100800000208F502334078B3792AE581942AFA097F
:10081000E708F6DAFA88812222FFFF0232E201724B
:100820000001730001670001680000EF700478990F
:100830007601227F017E00021400FF02280E540F71
:1008400024B0A3F022FFE18C6409CB0C1D89C8936E
:100850000332090634166C4391E90A1F561040888A
:100860003100DF6000000000000000004010A762BF
:10087000C8930332090634166C4391E90A1F5610D7
:1008800040883100DF6000000000000000004021CF
:100890006276C8930332090634166C4391E92A1F25
:1008A000561040813500DF8E00000000000000007F
:1008B0004023313BC8930332090634166C4391E957
:1008C0002A1F561040813500DF8E00000000000016
:1008D0000000405D93B1789303320B0644166C43DD
:1008E00091A90A11561040813500DFFE000000007A
:1008F00000000000407579007581B30209390218C3
:10090000B9E493A3F8E493A34003F68001F208DF6F
:10091000F48029E493A3F85407240CC8C333C454C7
:100920000F4420C8834004F456800146F6DFE4807B
:100930000B010204081020408090081EE47E019301
:1009400060BCA3FF543F30E509541FFEE493A3604D
:10095000010ECF54C025E060A840B8E493A3FAE4A8
:1009600093A3F8E493A3C8C582C8CAC583CAF0A3F9
:10097000C8C582C8CAC583CADFE9DEE780BEAC6BE2
:10098000AD6CAE6DAF6E7810EC4D4E4F70047CA523
:100990007DA5C3EC13FCED13FDEE13FEEF13FF502A
:1009A00010EC64CCFCED644CFDEE644EFEEF64CEC6
:1009B000FFD8DF8C6B8D6C8E6D8F6EEE547FFE22B8
:1009C0008E6B8F6C74A5F56DF56E220400003614E5
:1009D000180818200719F52003090220000101005A
:1009E00040320904000002FFFFFF000705820240B9
:1009F000000507050202400005333135204D487AD5
:100A0000202000343333204D487A202000383638F7
:100A1000204D487A202000393135204D487A202059
:100A200000322E342047487A202000322020202017
:100A300020202020003420202020202020200038CA
:100A4000202020202020202000313620202020209F
:100A50002020003332202020202020200036342087
:100A6000202020202020003132382020202020206B
:100A70000032353620202020202000353132202041
:100A8000202020200031303234202020202000324D
:100A900030343820202020200034303936202020E7
:100AA00020200038313932202020202000313633F8
:100AB00038342020202000333237363820202020C0
:100AC00000363535333620202020003133313037A1
:100AD00032202020003236323134342020200035BC
:100AE000323432383820202000313034383537362F
:100AF000202000534C41564520202020004D4153DA
:100B000054455220202000465245512042414E4437
:100B1000202020200001010371000409F9534554ED
:100B200020494420202020202020000001037201C1
:100B30000700005041434B4554204C454E47544814
:100B40000000010373103D000023204F4620504158
:100B5000434B45545320000101037400130A2B50EA
:100B6000524553455420202020202020000001031E
:100B7000750003000053454C454354204D4F4445F8
:100B80002020000101037600010AF353544152541E
:100B900020504552202020200002000000000000CC
:100BA0000043686970636F6E2043433030303020FB
:100BB00020005072657373205331202D3E20504524
:100BC00052200043686970636F6E20535246303480
:100BD000454220004E6F20454D2064657465637466
:100BE0006564212000751001751102751204850ECF
:100BF00013850F14221218669003BF7401F022FFB0
:100C00007596A2E59620E7FBE59722759622F59763
:100C1000E59620E7FB22DF06D041D042A12E2253E9
:100C2000A4BFAD4DBD0002C2A2D2867D10308604A5
:100C3000DCFBDDF9002243A440D2A2220000000028
:100C400000000000000022FEE54AB40704EE910B0C
:100C5000222443054AF8EEF622E54A2443054AF8E1
:100C6000E6228F4C228F4D22900089E49364DB6052
:100C700002740164012291687003C2A322D2A322EC
:100C80007E087F0012140091687003D2A322C2A3D1
:100C9000229176EF6006540160398003780DE6609A
:100CA00032120CD87E087F00121400913CD287913A
:100CB0003CC287913CD287913CC287913C9180C0D5
:100CC0004C754C017455D177E4D177911FD1CC91FB
:100CD00036D04C913C91802275410D75423EC287C1
:100CE000C28643A4C022C2AF75960E759702E596E0
:100CF00020E7FB759694E59620E7FBE59730E03B0F
:100D0000759696E59620E7FBAF97854183854282ED
:100D1000E47343A440D2A2E54B600B75961175971E
:100D200001E59620E7FBDF1675410D75423E75968D
:100D300014759700E59620E7FB80B8D2AF229100AA
:100D400030E000F54B534B0103F54A534A070303C8
:100D5000541E900D5673A1AAA1C4A1F8A172A1BE00
:100D6000A1F2A198A1B8A1ECC11EA1B2A1E6C1183F
:100D7000C14891169100D17753A4BFAD4DBD00027B
:100D8000C2A2D2867D10308604DCFBDDF900D1CC16
:100D90009147D1CC9147A11291169100D17791162C
:100DA0009100D17791169100D17791169100D1776A
:100DB000A11291169100D17791169100D1779116D9
:100DC0009100D17791169100D17753A4BFAD4DBD5D
:100DD0000002C2A2D2867D10308604DCFBDDF90061
:100DE000D1CC9147A11291169100D1779116910023
:100DF000D17791169100D17791169100D17753A4B4
:100E0000BFAD4DBD0002C2A2D2867D10308604DC8B
:100E1000FBDDF900D1CCA11291169100D17791168A
:100E20009100D17791169100D1779159D17753A440
:100E3000BFAD4DBD0002C2A2D2867D10308604DC5B
:100E4000FBDDF900D1CCA11291169100D17791165A
:100E50009100D1779159D1779159D17753A4BFADF2
:100E60004DBD0002C2A2D2867D10308604DCFBDDBF
:100E7000F900D1CCA112EFC54C703BC54C33D287E1
:100E80009286C28733D2879286C28733D287928670
:100E9000C28733D2879286C28733D2879286C2872F
:100EA00033D2879286C28733D2879286C28733D263
:100EB000879286C28722C54C7C089142914233D2E8
:100EC00087913C9286913CC287DCEF22E54C7039D9
:100ED000D287C287A28633D287C287A28633D287BF
:100EE000C287A28633D287C287A28633D287C287BF
:100EF000A28633D287C287A28633D287C287A286D0
:100F000033D287C287A28633227C0891429142D293
:100F100087913C913CA286C28733DCEF22D1CCFF83
:100F200022E709F608DFFA8046E709F208DFFA80CF
:100F30003E88828C83E709F0A3DFFA8032E309F66A
:100F400008DFFA8078E309F208DFFA807088828C83
:100F500083E309F0A3DFFA806489828A83E0A3F641
:100F600008DFFA805889828A83E0A3F208DFFA80DA
:100F70004C80D280FA80C680D4806980F280338031
:100F80001080A680EA809A80A880DA80E280CA80F9
:100F90003389828A83ECFAE493A3C8C582C8CCC59E
:100FA00083CCF0A3C8C582C8CCC583CCDFE9DEE71B
:100FB000800D89828A83E493A3F608DFF9ECFAA90D
:100FC000F0EDFB2289828A83ECFAE0A3C8C582C8CF
:100FD000CCC583CCF0A3C8C582C8CCC583CCDFEA1E
:100FE000DEE880DB89828A83E493A3F208DFF9805C
:100FF000CC88F0EF60010E4E60C388F0ED2402B49F
:10100000040050B9F582EB2402B4040050AF23234E
:10101000458223900F7173BB010689828A83E02287
:101020005002E722BBFE02E32289828A83E49322F4
:10103000BB010CE58229F582E5833AF583E0225075
:1010400006E92582F8E622BBFE06E92582F8E222BF
:10105000E58229F582E5833AF583E49322BB010911
:1010600089828A83F8E028F022500327F722BBFE0A
:1010700005F8E328F3228A838982F8E4932822BBC7
:10108000010689828A83F0225002F722BBFE01F317
:1010900022F8BB010DE58229F582E5833AF583E864
:1010A000F0225006E92582C8F622BBFE05E925821A
:1010B000C8F222EF8DF0A4A8F0CF8CF0A428CE8D3A
:1010C000F0A42EFE22BC000BBE0029EF8DF084FFA1
:1010D000ADF022E4CCF875F008EF2FFFEE33FEEC14
:1010E00033FCEE9DEC984005FCEE9DFE0FD5F0E93B
:1010F000E4CEFD22EDF8F5F0EE8420D21CFEADF03A
:1011000075F008EF2FFFED33FD4007985006D5F03E
:10111000F222C398FD0FD5F0EA22E88FF0A4CC8B21
:10112000F0A42CFCE98EF0A42CFC8AF0EDA42CFC9D
:10113000EA8EF0A4CDA8F08BF0A42DCC3825F0FDDC
:10114000E98FF0A42CCD35F0FCEB8EF0A4FEA9F0D5
:10115000EB8FF0A4CFC5F02ECD39FEE43CFCEAA421
:101160002DCE35F0FDE43CFC2275F008758200EFD1
:101170002FFFEE33FECD33CDCC33CCC58233C582C9
:101180009BED9AEC99E58298400CF582EE9BFEED82
:101190009AFDEC99FC0FD5F0D6E4CEFBE4CDFAE451
:1011A000CCF9A88222B800C1B90059BA002DEC8B45
:1011B000F084CFCECDFCE5F0CBF97818EF2FFFEE21
:1011C00033FEED33FDEC33FCEB33FB10D7039940DA
:1011D00004EB99FB0FD8E5E4F9FA227818EF2FFF1A
:1011E000EE33FEED33FDEC33FCC933C910D7059B5C
:1011F000E99A4007EC9BFCE99AF90FD8E0E4C9FAB8
:10120000E4CCFB2275F010EF2FFFEE33FEED33FD43
:10121000CC33CCC833C810D7079BEC9AE899400A66
:10122000ED9BFDEC9AFCE899F80FD5F0DAE4CDFBE4
:10123000E4CCFAE4C8F922EB9FF5F0EA9E42F0E92B
:101240009D42F0E89C45F022E8600FECC313FCEDF2
:1012500013FDEE13FEEF13FFD8F122E8600FEFC38A
:1012600033FFEE33FEED33FDEC33FCD8F122E6FC28
:1012700008E6FD08E6FE08E6FF22ECF608EDF608B3
:10128000EEF608EFF622ECF0A3EDF0A3EEF0A3EFFC
:10129000F022D083D082E493F608740193F60874A8
:1012A0000293F608740393F6740473A8828583F09E
:1012B000D083D0821212C21212C21212C21212C2F1
:1012C000E473E493A3C583C5F0C583C8C582C8F0A1
:1012D000A3C583C5F0C583C8C582C822EF4E60127E
:1012E000EF60010EEDBB010B89828A83F0A3DFFC66
:1012F000DEFA2289F05007F709DFFCA9F022BBFED5
:10130000FCF309DFFCA9F022202057616974696EA3
:101310006720666F72202020002020636F6E666950
:10132000672064617461202020000D0E0F101112DF
:10133000132E0B15191A1B1D23242621221C2C2DBC
:10134000D0C5D2A0D320CDBAA022A0A0A0CD20D3BA
:10135000BAA0CD20D3A0D3C5CED4A022A0A0A0CF28
:10136000C6A0A0A0CD20D3A0CCCFD3D4A022A0A033
:10137000A0CFC6A0A0A0D320CDA0CCCFD3D4A022F4
:10138000A0A0A0CFC6A0A0A07F81120C917F327E2A
:101390000091007F68120E76120C1F120F1D8F63D2
:1013A000120F1D8F64120C367F80120C91E563249E
:1013B000EF60192490601924FC601D24FC60212436
:1013C000F8602524907029756511800774118021BB
:1013D000756525756610801D7565247566308015E8
:1013E000756524756631800D7565257566118005F6
:1013F000E4F565F5667B007A007965227FFA7E0068
:101400000000000000000000000000000000EF1FCE
:1014100070011E144E70E9221208067575FFE4F57E
:1014200020F521120C7675A14075F80C75A20BD22F
:10143000F812344475A33030FFFDC2FF30810B75C4
:10144000760630810571FCD576F8D2FA7F0F91F5DA
:10145000EF605B7FF091F5EF24FE60232482603320
:1014600024FE6037248270397FF191F5EFD3940325
:101470004008752011752101802775201180177F84
:10148000F191F5EFC41354072450F521E43411F51C
:1014900020800E7520257521008006752025752178
:1014A00050E521452060074380C27575022275A66C
:1014B0000C7F01120C627F011234A3E521452070DC
:1014C00004FF1234A3E52145206029E4F5757580F9
:1014D0003F75A4CD7590FFF5A575A0FF75A60C7599
:1014E000E102900089937F40B4DB027FC08FE2125B
:1014F0000C80C2F8228F2DC2FA30810B752E063077
:10150000810571FCD52EF8E52D4480F5A330FFFD53
:10151000C2FFE4F5A330FFFDC2FFAFA3D2FA2278E9
:1015200086E6601B18E61846600908E61618700182
:1015300016800C7F36122479E47886F608760178D6
:1015400087E66037787CE660201223C78F2BE52B77
:1015500020E00F122714E4788BF67887F67F3A1292
:101560002479E4FD7F0E02224CE4788BF67F021290
:10157000082BE47887F67F3A022479C2AFE57270CF
:1015800003D2AF227FFB91F5EF700A788EE67005EB
:10159000F572D2AF22787CE67002C1691223C78F40
:1015A0002BE52B30E002C163788D7640759622C220
:1015B000FA30810B752C0630810571FCD52CF8753D
:1015C000A3FF30FFFDC2FF788EE67044787AE630E4
:1015D000E4247894516E1234BF780851481234BF15
:1015E000781051481234BF781851488F971223E66B
:1015F000788D74FC26F6E4F5A330FFFDC2FF788BEE
:10160000A6A3E6F597788D16788B0606788E760178
:10161000788BE6547FFF788DE6FEEFC39E50028004
:1016200002AF06C3788BE69FF6C3788DE69FF6AED1
:10163000071FEE6012E59620E7FBE4F5A330FFFDFF
:10164000C2FF85A39780E8E59620E7FBD2FA122730
:1016500014120833788BE6700A788DE66005E4088A
:10166000F6F572122248D2AF22E4F572D2AF7F3F74
:1016700091F57892E6FC08E6122D40E02402788B82
:10168000F678897601C2FA30810B752C0630810517
:1016900071FCD52CF875A3FF30FFFDC2FF788BE6F7
:1016A000166017E4F5A330FFFDC2FF7889E606FF58
:1016B0007892122E2DE5A3F080E3D2FAE4FF02081F
:1016C0002BE5167007120BE575160222E51664026B
:1016D0006002E19AAE0AE50B54C06002E19AEE1492
:1016E0006005046002E19AE50A7F0130E0027F189C
:1016F000123529F54E123520CEC313CE13D8F9F585
:10170000508E4F454F700DC3E50F954EF550E50EC9
:101710009400F54F850E51850F5275530275540490
:10172000E55245516074C2FA30810B75550630811F
:101730000571FCD555F8C3E552954EF552E5519427
:1017400000F551AF4EAE071FEE60140554E554ACE2
:10175000537002055312353230FFFDC2FF80E6C3DD
:10176000E5529550F552E551954FF551AF50AE0702
:101770001FEE60140554E554AC5370020553123546
:101780003230FFFDC2FF80E6E5A26003120833D2CB
:10179000FAE5A2608B120833808622AE0AE50B546C
:1017A000C0600302185FEE14600604600302185F55
:1017B000E50A7F0130E0027F18123529F55612350F
:1017C00020CEC313CE13D8F9F5588E57455770065F
:1017D000850E57850F58850E59850F5A755B027512
:1017E0005C04E55A45596077C2FA30810B755D0695
:1017F00030810571FCD55DF8E55614601614600B58
:10180000147018850AA330FFFDC2FF850CA330FFBA
:10181000FDC2FF850DA330FFFDC2FF050DE50D7074
:1018200002050CC3E55A9558F55AE5599557F559EF
:10183000AF58AE071FEE601CE4F5A330FFFDC2FFFA
:10184000055CE55CAC5B7002055B14F5828C83E59E
:10185000A3F080DED2FAE5A26088120833808312FA
:101860000BE575160122E5214520602E7533FF75C5
:10187000340B7535B27BFF7A0B79A131F9E520C4C1
:10188000540F24B09003A8F0E52012083EE521C4CF
:1018900012083EE52112083E80117533FF75340BA6
:1018A0007535D47BFF7A0B79C331F9122DB331B181
:1018B000E55E6004317E80F8227574FF7D017F094A
:1018C00012224C1234EDD2AFE57560111227EF12DF
:1018D0002AB9E55E6004317E80F8120BF512287893
:1018E000E57414601214601614601E14603324042E
:1018F0007034120CE68039E5C930E62080281213D6
:10190000FC1228D8122DF1800BE5C930E60E121317
:10191000FC1228D831B1317E513C8014757502809B
:101920000F122102800A1213FC1228D831B1317E25
:10193000E574657560AAC2ABE57524FE601114609C
:101940002514602A2404702EC2F8120CD880279027
:1019500003BFE07003120BF5209385E49003BFF002
:1019600012289D122B1F12273D12289D8008D2F8A5
:1019700075A20112335D12240385757401E0E55EE2
:10198000602EE560702A122869E0F5616019740420
:101990002562122870E05401F55FC3E561955FF59B
:1019A00061756001D2C522E4900304F0F55EF56232
:1019B000229003BEE0603DE55E70397403122AE4B4
:1019C00074801234D4780B7C037A03799E123474B9
:1019D00090031B7403122AE774C01234D478227C5B
:1019E000037A0379AE123474E4900332F0755E0129
:1019F0009003BEF022E4F51F22123543F536AB30DA
:101A0000AA31A93212271AFF122AF0749E2536F540
:101A100082E43403F583EFF0AB33AA34A9351227FF
:101A20001AFF122AF074AE2536F582E43403F583EA
:101A3000EFF00536E536C3941040C32278A1E6B432
:101A40000C004002A1D3901A4DF8282873021A7195
:101A5000021B19021B2E021B4A021B9E021D9B0227
:101A60001BC6021BE1021BFE021C2E021C69021D8A
:101A7000C4900370E014604324FE605B146028246B
:101A8000FE606D24046002A1D312344075A330308F
:101A9000FFFDC2FF30810C752F063081061213FC4A
:101AA000D52FF7D2FAD2AF1230D9122473D2ABD2DB
:101AB000AFE574B40203122DA1A11512344075A331
:101AC0003030FFFDC2FF30810C752F0630810612C9
:101AD00013FCD52FF7D2FA1230D9122473D2ABD21D
:101AE000AF9003941212AB0000000178A17601229E
:101AF000E5746403701C1223C5EF20E0129003808C
:101B00001212AB0000000012342F12224CF1EDD261
:101B1000AF22309302A1CFE1ED12301E78A1760200
:101B2000789C06E618700106E4FFFE1227D078982C
:101B3000E67002A1D3787EE66002A1D37898F6D24F
:101B4000A07F187E0112279F802F7886E6602F786D
:101B500099E66025B297E4F6900104E0B4010C9098
:101B60000106E030E70578A17604221234FA502508
:101B70000806E618700106801178A1760322123457
:101B8000FA50120806E618700106E4FFFE1227D08C
:101B900078A176022274051234C978A1F622123097
:101BA000CDC2AF1225801235631234CD900373126B
:101BB000355B90037412348F9003721232037605F2
:101BC0007F5C7E01A15E7899E67002A1D312350E8A
:101BD00064236002A1D3900127E020E702A1D38013
:101BE000367898E67002A1D3787EE66002A1D378B9
:101BF00098F678A17608D2A07F0C7E01A1C17886E4
:101C0000E660267899E67002A1D312350EB4230E51
:101C1000900127E030E70778A176070231B3E4FFAF
:101C2000FE12279F78A176062278A1760922C2AFFC
:101C30001225D8123563900106E0FF789D760008E2
:101C4000A607E6FEA3E0FDEE18F6ED08F61234CD89
:101C500090010412355B90010512348F900103123C
:101C60003203760A12354BA1C1C2A47899E67002FC
:101C7000A11AB297900384B1E51233339003841212
:101C80001286E47899F6789BF608F69001021232F3
:101C90009C30E70BB2A712323AE4FFB1F0800E900D
:101CA000038CB1E512333390038C121286B1E2F14A
:101CB000F4FBC31212375029900394B1E512333369
:101CC0009003941212861232A878A17605900376BA
:101CD000E070057F50FEA15E7884E6FE08E6FF8096
:101CE0007D900376E0FFB40102807EEF6002A1D315
:101CF00012318730FFFDC2FF30810C752F06308115
:101D0000061213FCD52FF7D2FA1230DB12353BB492
:101D10000203122DA1123553A1C17886E660057821
:101D2000A1760A22789C06E618700106C3789CE624
:101D3000946418E694005029B1E2F1F4FBC3121246
:101D400037501E900394B1E512333390039412126E
:101D5000861232C9120FF178A17605E4FFFE022740
:101D6000D0900376E0FFB4010578A1760B22EF70E6
:101D70006212318730FFFDC2FF30810C752F0630B3
:101D800081061213FCD52FF7D2FA1230DB12353B45
:101D9000B40203122DA11235538026D2A41232119F
:101DA0007898E6602E787EE67029D2A0FFB1F0E444
:101DB0007898F678A1760A7F2C7E011214001235ED
:101DC0004B02279F74061234C97899F678A1F67FE2
:101DD00001B1F022900388E0F8A3E0F9A3E0FAA3B0
:101DE000E0FB900380E0FCA3E0FDA3E0FEA3E02283
:101DF0008F30E57464026002E1961235052440F9E3
:101E00007413789E7C037F09122DE5123505244951
:101E1000F9741335F0FA78AE7C037F0912319DE531
:101E20006A6002E10AF1E660169003A274CDF090B8
:101E300003A474D3F09003B2F09003B474CDF0E532
:101E400030707B78A1E6640A6002E1A5900384F11A
:101E5000F8900398F1B6C004C005C006900398B18D
:101E6000E5123462D006D005D004122F7BF0123474
:101E7000B65008122DBA122D7680F3900394B1E576
:101E8000FFEC4D4E4F7002E193900388F1F8FB9008
:101E90000394A3A3A3E0C3900390F1C5C004C005BD
:101EA000C006A3B1E5123462D006D005D004122FCB
:101EB0007BF01234B64002E193122D5D80F4F1A65E
:101EC000C004C005C006B1E2123462D006D005D00D
:101ED00004122F7BF01234B65008122DBA122D7650
:101EE00080F3B1D412347FF1D0C004C005C006B174
:101EF000E2123462D006D005D004122F7BF01234E7
:101F0000B64002E193122D5D80F4E56A640170121F
:101F1000F1E660061234E374CDF0900394B1E5FF6E
:101F2000805CE56A64027030F1E660061234E374A6
:101F3000CDF0E530701978A1E6640A7068900388E6
:101F4000F1F8FB900394B1E512347FF1D0802FB10A
:101F5000D412347FF1D08026F1E6600874CD1234BB
:101F6000E574D3F0E530701478A1E6640A70369019
:101F70000384F1F8FB900398F1B78002F1A67B018E
:101F80007A0379A7122F83B1E2FF7B017A0379B735
:101F9000122F83022DB31223C5EF20E00612342F37
:101FA00012224CD2AF22900384E0F8A3E0F9A3E020
:101FB000FAA3E0900380FBE0FCA3E0FDA3E0FEA316
:101FC000E0C390038C9BFFEE9AFEED99FDEC98FC2C
:101FD000E0F8A3E0F9A3E0FAA3E02FFFEA3EFEE970
:101FE0003DFDE83CFC22900376E064012290037002
:101FF0007405F022FF900394E0F8A3E0F9A3E0FA5F
:10200000A3E022E4F51E22E509243BB40E00507C37
:1020100090201E75F003A4C58325F0C583730220AC
:102020004802204C02205602205102205B0220620E
:1020300002206702206C02207002207402207902C4
:102040002080022084022088F1EB804312338680B6
:102050003E1229978039122A4B8034E4FF120C91EA
:10206000802D1216C1802812179B80239153801F48
:10207000B12B801B1233688016AF0B120C62800FDD
:1020800011B9800B11938007D12180037516045379
:102090001FFE22E478ACF611B230810330CFFA2073
:1020A000810330CFFAC28775A30230FFFDC2FFD291
:1020B000FA2211F6C2FAD287227E007F087D007BC9
:1020C000007A0079A51212DC78A67600087640081E
:1020D0007600087640910311B230810330CFFA20A8
:1020E000810330CFFAC28775A30130FFFDC2FFD252
:1020F000FA78AC760122C2CAE4F5CCF5CDC2CFD2D3
:10210000CA2278ACE670024140913D30E002219A4B
:1021100078AAE6FE08E6FF4E6072C3EF9440EE94A4
:1021200000400C752F0075304078A5760180088E30
:102130002F8F30E478A5F6C378ABE69530F618E635
:10214000952FF6C2AF78A8E6FE08E68E31F532E5A7
:10215000301530AE2F7002152F4E601F75962285F8
:102160003282853183E0F5970532E5327002053120
:10217000E53130E202514171E680D4D2AF78A8A6B1
:102180003108A63271ECE4FD7F0E414C78A5E66083
:102190000971EC5148E478A5F622C378ABE6948047
:1021A00018E6940340024139C2AF11B230810330C6
:1021B000CFFA20810330CFFAC28775A30330FFFD29
:1021C000C2FF30810330CFFAE4F5A330FFFDC2FF38
:1021D000AFA3752F008F3078ABE53026F618E52FCA
:1021E00036F678A7E624FFF53218E634FFF531E538
:1021F000301530AE2F7002152F4E6022E4F5A30586
:1022000032E53270020531E53130E202514130FFF2
:10221000FDC2FF853282853183E5A3F080D1D2FAF9
:102220000532E53270020531E53130E20251417884
:10223000A6A63108A632D2AF227FE87E0312140090
:102240002275310075324022E4FD7F0EC2AF8F96B9
:102250008D9771E6D2AF22787DE6607C08E6600556
:10226000788AE66073788CE6701471D97F1471CF28
:10227000EF30E0087F1671CF788CA6075148788A36
:10228000E67055788CE6605071C1787BEFF630E0EF
:1022900009789412129200000000E4787FF608F6A4
:1022A00078837601787BE630E40971C1788FA607E0
:1022B000788C1671C1788AA607788C1616787BE61A
:1022C000540A7008788AE6D3943D400CC2AFC2A08D
:1022D000C297C2A4C2A780FE7883E6700261B67876
:1022E00080E61846600261AD7883F67886F6787DE0
:1022F000E66017787BE630E5047F369179787BE6F7
:1023000030E405788FE6D11CD196C2A0787E7601A4
:10231000C2FA30810C752D063081061213FCD52DC2
:10232000F775A33B30FFFDC2FFE4F57375A33530AD
:10233000FFFDC2FF75A37F30FFFDC2FF788AE6F57F
:10234000A330FFFDC2FF7888E6F52B788AE6F52CEE
:10235000787DE6602E71D98018AF2C152CEF6016B1
:10236000E59620E7FB8597A330FFFDC2FFE52C60D3
:10237000E87596A280E3E4788CF6FD7F14514C5109
:1023800048801AAF2C152CEF6013AF2B052B7890DB
:10239000122E2DE0F5A330FFFDC2FF80E67888A65F
:1023A0002BE4788AF6D2FAFF1232DA80097880E6D6
:1023B000161870011622E5736006E4F573787EF650
:1023C000227F22800AC2AF7D027F0E514C7F11C254
:1023D000AFEF914DAF97D2AF227D027F0E414CC23D
:1023E000AF75960E8F97E59620E7FB227B017D1156
:1023F0007F028D338B3471DF85339685349771E698
:10240000D2AF227B0871EE913D20E3FB7B0871EE99
:10241000913D20E3FB91457D14913F20E4F99145E6
:102420007D14913F20E4F9E4FD7F0E414C8D337122
:10243000DFE533914D859733D2AFAF33227D117FE6
:1024400002912DEF227B107D147F0280A54480F540
:10245000968093E50B450A60159103F13D787D76F2
:1024600001187601D2ABD1961234EDD2A822C2ABBC
:10247000C2A822C2AFB1187F33F123308110A879EE
:1024800076063081091213FCA87916E670F4A87953
:1024900008E6F5A330FFFDC2FFD2FA0579057922DF
:1024A00078A3E6FE08E6AA06F97BFFB1F490037272
:1024B000E0FD7F091579A879A605F123308110A8E0
:1024C0007976063081091213FCA87916E670F4A813
:1024D0007908E6F5A330FFFDC2FFA8790808E6F504
:1024E000A330FFFD9197057922E0FD7F0691B47D31
:1024F000057F0791B47D187F1891B47D0C7F1791EB
:10250000B47D007F2591B47D067F0291B47D3D7F2F
:102510000691B4C289D2A82291A07D007F0A91B40D
:10252000F12E7534087F3EB19080C4787AA60DE50F
:102530000D30E048E630E20A7F369179AD0C7F0A33
:1025400091B4787AE630E117789412126EC3E50BF5
:102550009F7885F6E50A9E18F6788676018010E564
:102560000B450A600A7884A60A08A60B087601E4DF
:102570007887F6788EF6D1967F3480027F3681791F
:1025800091A0D11890037391E9F12E7534087F3E24
:102590008F308B318A328933C2FA30810C7535061F
:1025A0003081061213FCD535F7E5304440F5A330F1
:1025B000FFFDC2FFAF341534EF601AAB310533E5D0
:1025C00033AA327002053214F9121017F5A330FF46
:1025D000FDC2FF80DFD2FA227B017A01790891AB3C
:1025E000D11890010491E97B017A01791E753408B4
:1025F0007F3E809C123543F533AB30AA31A932853A
:102600003382F11DFDE53390132A93FF91B4053316
:10261000E533C3941640E222900372E0FD7F0A8105
:10262000B4E516700E751001F511F512120BEE756A
:10263000160222E5166402705C11B230810330CFBD
:10264000FA20810330CFFAC287E4F5A330FFFDC240
:10265000FF30810330CFFAE50F2402F5A330FFFDF0
:10266000C2FF20810330CFFA850DA330FFFDC2FFEA
:10267000850FA330FFFDC2FF900000E50F150FAEE0
:102680000E7002150E4E600BE0F5A330FFFDC2FF89
:10269000A380E8D2FA22C2FA30810C752E0630816E
:1026A000061213FCD52EF775A30630FFFDC2FF7589
:1026B000A33D30FFFDC2FF75A38730FFFDC2FFE4DD
:1026C000F5A330FFFDC2FFAFA375A30730FFFDC226
:1026D000FFEF4404F5A330FFFDC2FF75A38830FF70
:1026E000FDC2FFE4F5A330FFFDC2FFAFA375A30851
:1026F00030FFFDC2FFEF54CD4405F5A330FFFDC20E
:10270000FF75A30230FFFDC2FF75A30630FFFDC2B7
:10271000FFD2FA227D017F11414C853682758300FC
:102720000210301579A879A6071579C2FA2278A483
:10273000E62418FF18E436FAA9077BFF227F217BE5
:10274000007A00797A12320AC2AB758D60E4F58B9B
:10275000FB7D047F01EF70055389FC8006BF0106F5
:102760005389CFEB4289EF7013EDD39403400543B7
:102770008E048005538EFBF192D28C22BF0112EDA4
:10278000D394034005438E088005538EF7F192D20F
:102790008E22752FFCE58E522FE52F4DF58E22F1FE
:1027A000C3E5314530600D7884A63008A63108763F
:1027B00001E408F6C2AF7F349179E4F572788EF6C1
:1027C000D2AF228E308F31C2AF7F369179D2AF2215
:1027D000F1C37888760178901230C4E0788AF67870
:1027E0007FA63008A6317883760122850D75227583
:1027F0008C96858C8A7B027D04E4FFF155E4F5C15B
:1028000043C18043E601E4F55EF560F56222C0E075
:10281000C083C082C0D075D000C007E5C054F0248A
:1028200080602224C0600D24E070311169E0F5C29F
:10283000C2C58028E55F70241561E56160191169E2
:10284000E0F5C28017AF611561EF60091169E5C25B
:10285000F0D2C18007C2C1D2C4756000C2C0D00727
:10286000D0D0D082D083D0E032AF62056274042F22
:10287000F582E43403F58322E478AD1192F608F68C
:102880009003D6F075BC3C75BA1F75D108D2EED254
:10289000EF22F608F608F608F608F60822E4789B18
:1028A0001192764008F608760B0876080876D378F9
:1028B000907600087600087601087602121FEDA3D4
:1028C00014F0A37401F0A3743DF0A3740AF0A37490
:1028D00002F0E4A3F0F5A2229003D6E014607A148B
:1028E0007002217224026002219675BB09C2EDD2EA
:1028F000EC30EDFD78B2E608F6AFBEEFD394604061
:102900000AEF947B50051876038037EFD394A440E8
:102910000BEF94BF500678B276048026EFD394C4B0
:10292000400BEF94DF500678B276018015EFC39428
:1029300000400BEF943D500678B276028004E478B4
:10294000B2F678B2E6FF0866700280027F0078B1C6
:10295000A6079003D67401F022A295E43378B0F66E
:102960007F002093027F0178AFA6079003D6740200
:10297000F02275BB06C2EDD2EC30EDFDAFBEEFF834
:10298000E479AEF7E819F7AFBD78ADE6F608E64FA3
:10299000F6E49003D6F022E50D146058147002415D
:1029A0001F24026002414AE516701075100175116E
:1029B000037512D7F513751408413EE516640260DD
:1029C00002414A9003D7E0FF9003DBE0FE30E005D0
:1029D000EF13B39297EE30E106EFA2E1B392A0EECF
:1029E00030E206EFA2E2B392A7EE30E35DEFA2E39E
:1029F000B392A422E516701BE50F6420450E600219
:102A0000802C75100175110375129E7513007514D5
:102A100020802BE516640270319003BE04F022E59D
:102A200016701FD3E50F9464E50E940040047516EC
:102A30000422751001751103751204120BEE751640
:102A40000222E516B40203755E0122E50D24FD6045
:102A50001B146029240270607404250BF9E434030C
:102A6000751001F5118912120BEE80497510007571
:102A700011007512AD7513007514078038751000BC
:102A8000751100751208751300751404AB10AA11A6
:102A9000A912E58012107FAB10AA11A912900001B3
:102AA000E590121091900002E5A0121091900003A1
:102AB000E5B012109175160122C2A3120833D2A3F9
:102AC000E49003BEF0740751E4A3740CF0A37421E6
:102AD000F0A374A0F0A37407F0A37424F0E4A3F0AF
:102AE000755E0122900304F0A37476F0E4A3F02253
:102AF000BF24047F828027BF40047F808020EF7046
:102B0000047F9B8019EFD3941F4013EF945B500E0A
:102B1000EF64246009EF6440600474802FFF227A20
:102B200003799EB1477A0379AEB147B1D4E5692400
:102B3000FA600C2406701690039E7430F080149096
:102B4000039E7412F09003BD7420F0800690039EE3
:102B50007422F0E4F53074C02530F582E43403F5D6
:102B600083E0FF51F074A02530F582E43403910F27
:102B7000940D40E2E5696404702FF530900B16E483
:102B8000B19475F00AA424F9F582E43409F583E5DB
:102B9000822530D134E493FF51F074A72530F582BB
:102BA000E43403910F940740D39003CEE0FF640216
:102BB000605BEF700EA3911CFF7E007C037DB291E1
:102BC000278034E4F530911975F00AA47C00253093
:102BD000FFEC35F0FE9003D4E0FCA3E02FF582EC8F
:102BE0003EF583E493FF51F074B22530F582E4346E
:102BF00003910F940940CF9119B18A40069003B018
:102C00007410F0B18150069003BA7420F0A1B3F5AE
:102C100083EFF00530E530C3229003CFE0FBA3E063
:102C2000FAA3E0F90210178E318F328C338D34E421
:102C3000F536F537F538753927753A10E5324531EF
:102C4000700A7F3091A070020533A13F753505AF42
:102C5000351535EF6049AC39AD3AAE31AF321210AF
:102C6000C58E378F38E5367006E5384537601F75F5
:102C70003601AE31AF32AC39AD3A1210C58C318D60
:102C800032E5382430FF91A070020533B13FAE39F0
:102C9000AF3A7C007D0A1210C58E398F3A80B0227F
:102CA00051F00534E534AC33228F30B1D4E5302413
:102CB000FE601614601D14604224036002A13EE50C
:102CC00069D394004078156922E569C39406506E73
:102CD0000569229003CEE064026063A3911CB18A6F
:102CE000405CE569B4020DEFB43D0474208044EF0C
:102CF000C313803FB152F974FF80409003CEE0B41B
:102D00000218E56964067036900B84B194900370E4
:102D100070047402F0227401F0229119FFB1815005
:102D20001DE569B40210EF25E012107F9119B4403F
:102D30000D743D02107FB152F9740112105D22141E
:102D4000F5828C83EFF0227E007F107D9B7B010259
:102D500012DC9003CFE0FBA3E0FAA3E022745F2F24
:102D6000F582E43403F583E0FF51F09003C0E024E2
:102D7000AEF582E43403F583EFF09003C0E004F095
:102D8000229003D3E0FEEFC39E22FF9003D2E0FE29
:102D9000EFD39E2293FB740193FA740293F902100D
:102DA000177533FF7534137535197BFF7A1379085E
:102DB0001219F99003BE7401F022745F2FF582E4BA
:102DC0003403F583E0FF51F09003C0E0249EF582C8
:102DD000E4340322E56975F016A42407F9740B782E
:102DE000C07C037F1635F0FA7BFF7D017E00020F69
:102DF000F178B1E6F52F900370E0B40513E52F6587
:102E0000676009AF2F91A9711FE4F56A852F6722CA
:102E1000E52F65686013E52FB40104156A8007E5A6
:102E20002FB40202056A536A03852F6822E6FC0864
:102E3000E68C832FF582E43583F58322F169F16016
:102E4000EC4D4E4F7002E14FAB34AA33A932A8319A
:102E5000D31212374002E14F753C30753D30753E5C
:102E600030753F30754030E4FFFEFDFCF15A606183
:102E7000F160F15A700E754031753F30753E307516
:102E80003C30804D753C2DE54064307044853F40BA
:102E9000853E3F853D3E753D30F1727B0AFAF9F87B
:102EA00012111AF169F160AB34AA33A932F15A4018
:102EB0001C053DE5349538F534E5339537F533E5B4
:102EC000329536F532E5319535F53180D8053C80BF
:102ED000B67405253DF53DE4FF743D2FF8E6C39437
:102EE0003A400616743E2FF8060FBF03ECF153AAC2
:102EF0003A7002053A14F9E540F150AA3A70020519
:102F00003A14F9742EF150AA3A7002053A14F9E510
:102F10003FF150AA3A7002053A14F9E53EF150AA81
:102F20003A7002053A14F97465F150AA3A70020534
:102F30003A14F9742DF150AA3A7002053A14F9E5E1
:102F40003CF150AA3A7002053A14F9E412107F22BB
:102F500012107FAB39053BE53B22A831C302123783
:102F6000AF38AE37AD36AC35228F348E338D328CE0
:102F70003122AF34AE33AD32AC3122D13C9003C0FC
:102F8000740922F1698B358A368937753901E4F580
:102F90003AF53B753F40753E42753D0FF53CF538BF
:102FA000123517F1721211A58E3A8F3BE53B453A67
:102FB0007004E5397027E4F539F1721235171211F2
:102FC000A5AC00AD01AE02AF03F169E53B24B0ABA7
:102FD00035AA36A937853882758300801CE538AB61
:102FE00035AA36A937B40609F58275830074B08016
:102FF0000885388275830074A0121091AF3FAE3EF1
:10300000AD3DAC3CE47B0AFAF9F81211A58F3F8E76
:103010003E8D3D8C3C0538E538640770832211CD28
:10302000742331A6900373E0FD900002F0900374C6
:10303000E0900003F011C27416789D11BD741793CF
:10304000FB789EE618F6EB11C07420789F11BD74D2
:103050002193FB78A0E618F6EB08F6EDC3943D90BB
:103060000373E0500DC4540F24FFFFE434FFFE1837
:103070008008C4540FFF7E00789FE6FC08E6FD122E
:1030800010B3789EEF26F618EE36F6789DE6FC082B
:10309000E6FDEC900004F0AF05A3EFF078A3E6FEA8
:1030A00008E6AA06F978067C007F16319D12272EC5
:1030B000781C7C007D017E007F08020FF193760072
:1030C00008F678A3E6FE08E6F5828E832290037167
:1030D000E0FF900375E0FD80093178900371E0FF17
:1030E000E4FDEF14602414603B1460522403706804
:1030F000ED601175F022A424DEF582E5F03439AFDD
:1031000082FE806C7E087F4B8066ED601175F02238
:10311000A42444F582E5F0343AAF82FE80047E08B0
:103120007F6D804CED601175F022A424AAF582E534
:10313000F0343AAF82FE80047E087F8F8032ED60EB
:103140001175F022A42410F582E5F0343BAF82FE25
:1031500080047E087FB18018ED601175F022A424F0
:1031600076F582E5F0343BAF82FE80047E087FD3A3
:1031700078A3A60608A607227E007F1F7D007B019C
:103180007A03797F0212DC789DF608F67898F608C3
:10319000F63178C2AFC2A8C2FA75A330227BFF7D98
:1031A000017E00020FF1900000F0900372E09000A9
:1031B00001F022740231A6A37401F07F0A7E00029E
:1031C00027D0900000EFF0A3EDF07F097B017A009B
:1031D0007902510A9000047401F075300075310BCA
:1031E00012097E74002531F58274003530F583EFC5
:1031F000F00531E53170020530C39402E5309401E9
:1032000040DE22E0FD31C278A1227E007D00021264
:10321000DC75300A12097E78A2E6FE2400F582E40D
:103220003400F583EFF0900373E0FFEEB50704760A
:103230000B800378A206D530DB2278997C037A01D3
:1032400079045193120FF178897C037D017B017A17
:103250000179077E007F03120FF178917C037A01D8
:10326000790A5193120FF190037FE02403F582E471
:103270003401F583E0FF90039CE4F0A3EFF09003AA
:103280007F519CFD90039DE0FFED90039CCFF0A348
:10329000EFF0227D017B017E007F0322E02404F514
:1032A00082E43401F583E02251C9120FF17A0379E7
:1032B0008578057C0051D1120FF17A03798D7B015D
:1032C00078087C0051D3020FF17A03799578027C5B
:1032D000007B017D017E007F0322EF7004789876E9
:1032E0000122C0E0C0F0C083C082C0D075D000C051
:1032F00000C001C002C003C004C005C006C00775FD
:103300008D60758B00789412126EEF713378941281
:10331000127A12225712151FD007D006D005D004FA
:10332000D003D002D001D000D0D0D082D083D0F052
:10333000D0E0322401FFE43EFEE43DFDE43CFC220B
:10334000C0E0C0D075D000C000787EE6600575731F
:10335000018003757201D000D0D0D0E032E478ACA7
:10336000F6F5C8F5CAF5CB22E5167019900370E0A2
:10337000B40512751001751103751270751300757F
:1033800014077516022275100075110075127475F8
:10339000130075140175160122C2FA30810C75777D
:1033A000063081061213FCD577F775A33D30FFFD7B
:1033B000C2FFD2FAAFA322C2FA30810C7578063070
:1033C00081061213FCD578F775A3BD30FFFDC2FF4F
:1033D000D2FAAFA3228B6F8A708971ED6026430702
:1033E00080E4FEEEC39D501CC2AF8F961223E6AB65
:1033F0006FAA70A9718E82758300E597121091D221
:10340000AF0E80DF228B318A328933ED6020E4FEFB
:10341000EEC39D5019C2AF8F96AB31AA32A9338E3D
:103420008212271DF5971223E6D2AF0E80E2227B8F
:10343000017A03797F7D1F7F2291057D017F112213
:10344000C2AFC2A8D2FA7F017E00121400C2FA7F76
:10345000017E00121400D2FA7F2D7E00121400C2E9
:10346000FA22F5388E378D368C35753901753A0369
:10347000753B68227D017B017E007F10020FF1C346
:103480009BFFEE9AFEED99FDEC98FC900390227F55
:1034900002FEFDFCE0F9F812125B90038012128626
:1034A000AF0322120C6512138878207C007D007E09
:1034B000007F02020FF19003C0E0FFC39410228F3F
:1034C000971223E6789402126E900370F0E4789BD2
:1034D000F608F622A3F0A37412F0A37476F0A37496
:1034E00040F02274D390039EF09003A022D288E58E
:1034F000E454F04406F5E4C2A822C3789CE694059F
:1035000018E6940022E56A25E075F009A422B29736
:10351000E4F6900102E022AB3FAA3EA93DA83C227E
:103520007E00E50B543C780222EF14F5A2E50B5423
:10353000032214F5828C83E0F5A322122518D2AF62
:10354000E574228B308A318932E422789DE6FE08C8
:10355000E6FF2278A17606E4FFFE22E0FB90037FDF
:10356000F0E4227F33122479D2AF22FFFFFFFFFF66
:10357000FFFFFFFFFFFFFFFFFFFFFFFFFFFFFFFF5B
:10358000FFFFFFFFFFFFFFFFFFFFFFFFFFFFFFFF4B
:10359000FFFFFFFFFFFFFFFFFFFFFFFFFFFFFFFF3B
:1035A000FFFFFFFFFFFFFFFFFFFFFFFFFFFFFFFF2B
:103A00000C1D89F5830332090615166C0391E90A2A
:103A10001F561040883103F76000000000000000CE
:103A200002150C1D89CA830332090635166C4391B1
:103A3000E90A1F5610408831008F60000000000026
:103A4000000000110C1D890E3B7342090D001D1C66
:103A5000C7B0EA0A1FB61000883100756000000088
:103A600000000000000110A762F58303320906156B
:103A7000166C0391E90A1F561040883103F7600065
:103A8000000000000000021510A762CA830332097B
:103A90000635166C4391E90A1F5610408831008F95
:103AA0006000000000000000001110A7620E3B73D0
:103AB00042090D001D1CC7B0EA0A1FB6100088316C
:103AC000007560000000000000000001216276F532
:103AD000830332090615166C0391E92A1F5610401C
:103AE000813503F78E0000000000000002152162FE
:103AF00076CA830332090635166C4391E92A1F56AC
:103B000010408135008F8E00000000000000001181
:103B10002162760E3B7342090D001D1CC7B0EA2AD4
:103B20001FB61000883100758E00000000000000F4
:103B3000000123313BF5830332090615166C03910E
:103B4000E92A1F561040813503F78E00000000005F
:103B50000000021523313BCA830332090635166C77
:103B60004391E92A1F5610408135008F8E000000D6
:103B700000000000001123313B0E3B7342090D0091
:103B80001D1CC7B0EA2A1FB61000883100758E00D0
:103B900000000000000000015D93B1868303320B3A
:103BA0000844166C0391A90A11561040813502355C
:103BB000FE00000000000000010B5D93B12D3B737F
:103BC000320B09001D1CC7B0EA0A11B6100088317B
:103BD0000077FE0000000000000000035D93B10EBE
:103BE0003B73420B0C001D1CC7B0EA0A19B610400B
:103BF00088310075FE000000000000000001FFFF9A
:103C0000FF75B980E4FFFE0FBF00010EEF64144E94
:103C100070F543B9C0E5B930E5FB75A90275B2830B
:103C200022E50A24FE601914606B2402600281CD33
:103C30007510FF75110075127E90007EE49381C6A9
:103C4000E5226031900849E493FE740193FF240E4D
:103C5000FDE43EA9057510FFF51189128F828E8350
:103C6000741193FE900849E493FC740193F5828CDF
:103C700083741080137510FF7511007512909000F9
:103C800093E493FE900092E4937C002400F514ECFE
:103C90003EF513803BE50B14601214601A24027089
:103CA0001F7510FF7511007512A280147510FF7535
:103CB00011007512A680097510FF7511007512BCF0
:103CC0001205191200D4751300F51480037516043B
:103CD000E51664046014D3E514950FE513950E40C2
:103CE00006850E13850F1475160122C2AF53D77FB8
:103CF000E50B450A601C7FD07E070000EF1F7001B6
:103D00001E144E70F5E50B150B7002150A14450ACA
:103D100070E475EF1022E50F7004E50E64027F0178
:103D200060027F048F16E50D25E07510FFF5117513
:103D3000120075130275140022E516702EE523603B
:103D400008E50D641D450C700AE50F7004E50E646E
:103D50000260047F0480027F028F167513027514BF
:103D60000075100175110075120022E516640270CD
:103D700055E50D7F0025E0FE43EF02C2AF758F03CE
:103D800075B7A575B7F18F82F583E4F0758F017C67
:103D9000007D00752702F528E5281528AA2770025E
:103DA00015274A601C75B7A575B7F18D828C83E025
:103DB0008F828E83F00FBF00010E0DBD00010C80BD
:103DC000D7E4F58FD2AF22FFFFFFFFFFFFFFFFFF1A
:103DD000FFFFFFFFFFFFFFFFFFFFFFFFFFFFFFFFF3
:103DE000FFFFFFFFFFFFFFFFFFFFFFFFFFFFFFFFE3
:103DF000FFFFFFFFFFFFFFFFFFFFFFFFFFFFFFFFD3
:00000001FF
