:1000000002015402080301000000FF02080BE4FF94
:10001000C126FF0208137F01C126FF02081BFFFF54
:10002000FFFFFF020823FFFFFFFFFF02082BFFFF78
:10003000FFFFFF020833FFFFFFFFFF02083BFFFF48
:10004000FFFFFFA120E59620E7FB2202084BFFFF00
:10005000FFFFFF020853FFFFFFFFFF02085BFFFFE8
:10006000FFFFFF020863FFFFFFFFFF02086BFFFFB8
:10007000FFFFFF020873FFFFFFFFFF02087B120173
:10008000100100000040A01120EB07C00102000198
:100090000902120001010040320904000000FFFFC4
:1000A000FF000403090416034300680069007000A0
:1000B00063006F006E0020004100530018035300DE
:1000C0006D00610072007400520046003000340080
:1000D00045004200BB010689828A83E0225002E784
:1000E00022BBFE02E32289828A83E49322BB010CB5
:1000F000E58229F582E5833AF583E0225006E92579
:1001000082F8E622BBFE06E92582F8E222E5822992
:10011000F582E5833AF583E49322BB010689828A5E
:1001200083F0225002F722BBFE01F322F8BB010D3F
:10013000E58229F582E5833AF583E8F0225006E965
:100140002582C8F622BBFE05E92582C8F2228A83F1
:100150008982E473787FE4F6D8FD75812A02016014
:1001600053D9BF75E10775E2C17580F875A0F775C1
:10017000A41D75A59075A6B975F2BB75F3FD75D470
:10018000C075D54C75D602123C015109D2AF2093EF
:10019000073095047F0180027F008F2AE52A6005E1
:1001A000E4F522801C900846E493B4E110A3E493A4
:1001B000B48C0AA3E493B464047F0180027F008FAF
:1001C00022E522601AE5EF7F0020E4027F018F2301
:1001D0009008499194740493FE7405D1038007E458
:1001E000F523F520F52143E60243E602E5C930E6B2
:1001F00013E52A70FC30930C209509E5237005E582
:10020000C920E6EDD1950208007D087F0151407DAF
:100210000F7F0751401D7F0951407D047F0B5140E6
:1002200075D7C043D7207D807F0F5140E4FD7F010B
:10023000800E7F0E51407D847F1251407D807F155E
:10024000C2AF8F968D971145D2AF22E5156402603B
:1002500014E50D450C700EE50F450E7008E50B54C6
:10026000FE450A600475160422E50B602775150427
:10027000E4FF51997D017F0E51407D047F12514072
:10028000E4FD7F1551407D0251327D035132E4FD82
:100290007F0E80AC7515037F038F178F188F198F12
:1002A0001A8F1B8F1C22E4FD7F0E51407F11B1BBC2
:1002B0008F25E52530E4047D809189E52530E20431
:1002C000E4FD9189E516640270497F16B1BB8F2663
:1002D000B119AD267F20B1E3AF267E00C3E5149FA0
:1002E000F514E5139EF513EF2512F512EE3511F511
:1002F00011E51445137010E509243F7005123D39CE
:100300008002916CE4F516E51445137D4860027D8A
:10031000408160E516B405028169E5166002811925
:10032000E52520E00281197B007A0079087D087FAD
:1003300020B1E3E50BFE7C00E4250AF50BEC3EF56D
:100340000AE50DFEE4250CF50DEC3EF50CE50FFE7F
:10035000E4250EF50FEC3EF50EE50854E024E070C0
:100360000261F924E0606224C0603924E070026117
:10037000F924E0606F24C0600261FDE50914601893
:1003800024FE601024FA601424FE60142406706DAC
:10039000F114806C11168068110E8064514B8060DE
:1003A000F1C5805CE50924FA601024FE601124FE8A
:1003B0006011240A7011F1498046123C218041D11C
:1003C000D9803DD1AB80398034E509243D600C14DF
:1003D000600D24037023123D398025D195802112B0
:1003E0003CEB801CE5092440600924FE7009123DA5
:1003F00016800D919F80098000916C800375160412
:10040000E51664056065E5166406605FE5167D40E7
:10041000B404027D607F115140E51664017045759A
:100420002502C3E5149440E5139400500585142675
:100430008003752640C3E5149526F514E513940052
:10044000F51345147005432508F516B119AD267F3F
:1004500020D109E5262512F512E43511F511AD2557
:100460007F114140E516B40602916C22E522601529
:10047000E5236011431F019191740893FE74099361
:10048000AA06F9214E751604227F115140E4F51693
:1004900022900849E493FE740193F5828E8322E54D
:1004A0000D450C7072F510751100751208F5137575
:1004B0001408751601B119E521311AB1199000011E
:1004C000E520312CE52260089191740193FF8002B0
:1004D0007F00900002B1D060079191E493FF800209
:1004E0007F00900003B1D060089191740393FF8066
:1004F000027F00900004B1D060089191740293FFD4
:1005000080027F00900005EF312C900006E523313A
:100510002C900007E4212C816CAB10AA11A91222A7
:10052000C0E0C0F0C083C082C0D075D000C000C0A1
:1005300001C002C003C004C005C006C0077F06B1E9
:10054000C9601730E202B1D6E524421DE5226050B1
:100550009191740693FE740780447F02B1C96022B2
:1005600030E0055324FE51A6E524421FE51F60300C
:10057000E522602CE52360289191740A93FE740BA8
:10058000801C7F04B1C96018421EE51E6012E5227E
:10059000600EE523600A9191740C93FE740DD103F3
:1005A000D007D006D005D004D003D002D001D000AF
:1005B000D0D0D082D083D0F0D0E032C2AFEF448030
:1005C000F5961145AF97D2AF22B1BB8F24E5242217
:1005D000EF312CE52222751502E4FD7F01918B7F1E
:1005E000034199D18D601B430780E4FEEEC39D500B
:1005F00011C2AF8F961145D19FE597312CD2AF0E26
:1006000080EA2293AA06F9214ED18D6018E4FEEE0D
:10061000C39D5011C2AF8F96D19F11EDF597114533
:10062000D2AF0E80EA22AE07E50F450E705BE515EE
:1006300064026055E515B40308E50D450C600280C1
:1006400048E508541F24FE7040E50B703FAC0DECEC
:100650005403FD7F0E5140EC30E710547F2403FC1F
:10066000EE7D4060027D107F118009EE7D8060028A
:100670007D207F145140EE7F0060027F0374162CB2
:10068000F8A607E4FD7F0E4140751604228B278AE9
:10069000288929ED22E5237005C2AF75230122AB1D
:1006A00027AA28A9298E8275830022E515B404198A
:1006B000E508B48114E50B450A700EE50D450C7094
:1006C00008E50F6401450E600475160422F10A75F1
:1006D000130075140175160122E50B450A700EE52D
:1006E0000D450C7008E50F6401450E600475160495
:1006F00022E515B4040B7510FF7511007512068004
:1007000007E515B40302F10A80C57510FF751100E5
:1007100075120822E50D450C700FE50F450E7009A6
:10072000E50A7005E50B30E70475160422AD0BE40D
:10073000FF5140E50B6009E515B4020C7515032265
:10074000E515B4030375150222E50B450A700CE5A7
:100750000C7008E50F6402450E600475160422E56E
:1007600008247F600D14601924027046E50D600DA9
:100770008040E515B40404E50D60028035F10A807F
:1007800034E515640460028029E50D547FFFE50D12
:1007900030E7030F0F0F74162FF8E67BFFB4030644
:1007A0007A00790680047A0079088B108A11891200
:1007B0008003751604E5166404600975130075144A
:1007C0000275160122E508B40112E50F450E700C02
:1007D000E50B450A7006E50D450C6003751604220D
:1007E000FFFFFFFFFFFFFFFFFFFFFFFFFFFFFFFF19
:1007F000FFFFFFFFFFFFFFFFFFFFFFFFFFFFFFFF09
:100800000208F502339178B6792AE581942AFA092B
:10081000E708F6DAFA88812222FFFF02333F0175EA
:1008200000017600016A00016B0000EF7004789C03
:100830007601227F017E000213F9FF022065540F2A
:1008400024B0A3F022FFE18C6409CB0C1D89C8936E
:100850000332090634166C4391E90A1F561040888A
:100860003100DF6000000000000000004010A762BF
:10087000C8930332090634166C4391E90A1F5610D7
:1008800040883100DF6000000000000000004021CF
:100890006276C8930332090634166C4391E92A1F25
:1008A000561040813500DF8E00000000000000007F
:1008B0004023313BC8930332090634166C4391E957
:1008C0002A1F561040813500DF8E00000000000016
:1008D0000000405D93B1789303320B0644166C43DD
:1008E00091A90A11561040813500DFFE000000007A
:1008F0000000000040757C007581B60209390218BD
:10090000FDE493A3F8E493A34003F68001F208DF2B
:10091000F48029E493A3F85407240CC8C333C454C7
:100920000F4420C8834004F456800146F6DFE4807B
:100930000B010204081020408090081EE47E019301
:1009400060BCA3FF543F30E509541FFEE493A3604D
:10095000010ECF54C025E060A840B8E493A3FAE4A8
:1009600093A3F8E493A3C8C582C8CAC583CAF0A3F9
:10097000C8C582C8CAC583CADFE9DEE780BEAC6EDF
:10098000AD6FAE70AF717810EC4D4E4F70047CA51A
:100990007DA5C3EC13FCED13FDEE13FEEF13FF502A
:1009A00010EC64CCFCED644CFDEE644EFEEF64CEC6
:1009B000FFD8DF8C6E8D6F8E708F71EE547FFE22AC
:1009C0008E6E8F6F74A5F570F571220400003714D8
:1009D0001108181A380BF80BFC090220000101005D
:1009E00040320904000002FFFFFF000705820240B9
:1009F000000507050202400005333135204D487AD5
:100A0000202000343333204D487A202000383638F7
:100A1000204D487A202000393135204D487A202059
:100A200000322E342047487A202000322020202017
:100A300020202020003420202020202020200038CA
:100A4000202020202020202000313620202020209F
:100A50002020003332202020202020200036342087
:100A6000202020202020003132382020202020206B
:100A70000032353620202020202000353132202041
:100A8000202020200031303234202020202000324D
:100A900030343820202020200034303936202020E7
:100AA00020200038313932202020202000313633F8
:100AB00038342020202000333237363820202020C0
:100AC00000363535333620202020003133313037A1
:100AD00032202020003236323134342020200035BC
:100AE000323432383820202000313034383537362F
:100AF000202000534C41564520202020004D4153DA
:100B000054455220202000465245512042414E4437
:100B1000202020200001010371000409F9534554ED
:100B200020494420202020202020000001037201C1
:100B30000700005041434B4554204C454E47544814
:100B40000000010373103D000023204F4620504158
:100B5000434B45545320000101037400130A2B50EA
:100B6000524553455420202020202020000001031E
:100B7000750003000053454C454354204D4F4445F8
:100B80002020000101037600010AF353544152541E
:100B900020504552202020200002000000000000CC
:100BA0000043686970636F6E2043433030303020FB
:100BB00020005072657373205331202D3E20504524
:100BC00052200043686970636F6E20535246303480
:100BD000454220004E6F20454D2064657465637466
:100BE00065642120007E00E50B543C780222121837
:100BF000AB9003BF7401F022E4F51F22E4F51E223E
:100C00007596A2E59620E7FBE59722759622F59763
:100C1000E59620E7FB22DF0AD041D04289438A448F
:100C2000A1432253A4BFE54F7002C2A2D2867D1019
:100C3000308608E5506002D1A6DDF52243A440D2FB
:100C4000A2220000000000000000000022FEE54C8F
:100C5000B40704EE910B222445054CF8EEF622E58C
:100C60004C2445054CF8E622900089E49364DB604F
:100C700002740164012291687003C2A322D2A322EC
:100C80007E087F001213F991687004D2A38002C21B
:100C9000A37E087F001213F9229176EF60065401BB
:100CA00060398003780DE66032120CE07E087F0028
:100CB0001213F99142D2879142C2879142D2879111
:100CC00042C28791429180C04E754E017455D151F8
:100CD000E4D1519123D1A6913CD04E9142918022F2
:100CE00075410D754253C287C28643A4C0228F4E00
:100CF000228F4F228F5022C2AF75960E759702E554
:100D00009620E7FB759694E59620E7FBE59730E0A3
:100D10003F759696E59620E7FBAF97854183854220
:100D200082A943AA44E47343A440D2A2E54D600BD8
:100D3000759611759701E59620E7FBDF1675410D55
:100D4000754253759614759700E59620E7FB80B4BD
:100D5000D2AF22910030E000F54D534D0103F54C28
:100D6000534C070303541E900D6B73A1ADA1C7A193
:100D7000E7A189A1C1A1E1A19BA1BBA1DBA1F9A12F
:100D8000B5A1D5A1F3C10FC12991169100D15191FF
:100D900023D1A6914DD1A6914DA12791169100D1B5
:100DA0005191169100D15191169100D15191169106
:100DB00000D151A12791169100D15191169100D1E6
:100DC0005191169100D15191169100D1519123D199
:100DD000A6914DA12791169100D15191169100D164
:100DE0005191169100D15191169100D1519123D179
:100DF000A6A12791169100D15191169100D1519140
:100E0000169100D151915FD1519123D1A6A1279183
:100E1000169100D15191169100D151915FD151910C
:100E20005FD1519123D1A6A1279100FAD151910010
:100E3000F9D151EA5407FA4970027A08E960010AC7
:100E400091169100D151D9F8DAF69123D1A6A127B4
:100E5000EFC54E703BC54E33D2879286C28733D2E0
:100E6000879286C28733D2879286C28733D287928F
:100E700086C28733D2879286C28733D2879286C250
:100E80008733D2879286C28733D2879286C28722DF
:100E9000C54E7C089148914833D287914292869101
:100EA00042C287DCEF22E54E7039D287C287A28624
:100EB00033D287C287A28633D287C287A28633D233
:100EC00087C287A28633D287C287A28633D287C2DF
:100ED00087A28633D287C287A28633D287C287A2EF
:100EE0008633227C0891489148D28791429142A250
:100EF00086C28733DCEF22D1A6FF22E709F608DF9E
:100F0000FA8046E709F208DFFA803E88828C83E7A0
:100F100009F0A3DFFA8032E309F608DFFA8078E30C
:100F200009F208DFFA807088828C83E309F0A3DF7E
:100F3000FA806489828A83E0A3F608DFFA80588900
:100F4000828A83E0A3F208DFFA804C80D280FA80A4
:100F5000C680D4806980F28033801080A680EA80C9
:100F60009A80A880DA80E280CA803389828A83EC02
:100F7000FAE493A3C8C582C8CCC583CCF0A3C8C586
:100F800082C8CCC583CCDFE9DEE7800D89828A8305
:100F9000E493A3F608DFF9ECFAA9F0EDFB228982CD
:100FA0008A83ECFAE0A3C8C582C8CCC583CCF0A381
:100FB000C8C582C8CCC583CCDFEADEE880DB898285
:100FC0008A83E493A3F208DFF980CC88F0EF600114
:100FD0000E4E60C388F0ED2402B4040050B9F582CF
:100FE000EB2402B4040050AF2323458223900F4B1F
:100FF00073BB010689828A83E0225002E722BBFE8E
:1010000002E32289828A83E49322BB010CE58229D0
:10101000F582E5833AF583E0225006E92582F8E679
:1010200022BBFE06E92582F8E222E58229F582E567
:10103000833AF583E49322BB010989828A83F8E02D
:1010400028F022500327F722BBFE05F8E328F322FD
:101050008A838982F8E4932822BB010689828A83E5
:10106000F0225002F722BBFE01F322F8BB010DE58E
:101070008229F582E5833AF583E8F0225006E925D6
:1010800082C8F622BBFE05E92582C8F222EF8DF068
:10109000A4A8F0CF8CF0A428CE8DF0A42EFE22BC04
:1010A000000BBE0029EF8DF084FFADF022E4CCF8F8
:1010B00075F008EF2FFFEE33FEEC33FCEE9DEC985D
:1010C0004005FCEE9DFE0FD5F0E9E4CEFD22EDF8E3
:1010D000F5F0EE8420D21CFEADF075F008EF2FFF86
:1010E000ED33FD4007985006D5F0F222C398FD0F6E
:1010F000D5F0EA22E88FF0A4CC8BF0A42CFCE98E8A
:10110000F0A42CFC8AF0EDA42CFCEA8EF0A4CDA86F
:10111000F08BF0A42DCC3825F0FDE98FF0A42CCD78
:1011200035F0FCEB8EF0A4FEA9F0EB8FF0A4CFC558
:10113000F02ECD39FEE43CFCEAA42DCE35F0FDE4E2
:101140003CFC2275F008758200EF2FFFEE33FECDD8
:1011500033CDCC33CCC58233C5829BED9AEC99E577
:101160008298400CF582EE9BFEED9AFDEC99FC0F07
:10117000D5F0D6E4CEFBE4CDFAE4CCF9A88222B8CF
:1011800000C1B90059BA002DEC8BF084CFCECDFC54
:10119000E5F0CBF97818EF2FFFEE33FEED33FDECE1
:1011A00033FCEB33FB10D703994004EB99FB0FD8CA
:1011B000E5E4F9FA227818EF2FFFEE33FEED33FD68
:1011C000EC33FCC933C910D7059BE99A4007EC9B67
:1011D000FCE99AF90FD8E0E4C9FAE4CCFB2275F0F7
:1011E00010EF2FFFEE33FEED33FDCC33CCC833C808
:1011F00010D7079BEC9AE899400AED9BFDEC9AFC0E
:10120000E899F80FD5F0DAE4CDFBE4CCFAE4C8F9BC
:1012100022EB9FF5F0EA9E42F0E99D42F0E89C4502
:10122000F022E8600FECC313FCED13FDEE13FEEFAC
:1012300013FFD8F122E8600FEFC333FFEE33FEED6A
:1012400033FDEC33FCD8F122E6FC08E6FD08E6FEAF
:1012500008E6FF22ECF608EDF608EEF608EFF622B7
:10126000ECF0A3EDF0A3EEF0A3EFF022D083D08258
:10127000E493F608740193F608740293F608740375
:1012800093F6740473A8828583F0D083D0821212FF
:101290009C12129C12129C12129CE473E493A3C53C
:1012A00083C5F0C583C8C582C8F0A3C583C5F0C592
:1012B00083C8C582C822EF4E6012EF60010EEDBBFD
:1012C000010B89828A83F0A3DFFCDEFA2289F050C9
:1012D00007F709DFFCA9F022BBFEFCF309DFFCA93C
:1012E000F022202057616974696E6720666F722052
:1012F0002020002020636F6E66696720646174613E
:10130000202020000D0E0F101112132E0B15191A8C
:101310001B1D23242621221C2C2DD0C5D2A0D32076
:10132000CDBAA022A0A0A0CD20D3BAA0CD20D3A01A
:10133000D3C5CED4A022A0A0A0CFC6A0A0A0CD206F
:10134000D3A0CCCFD3D4A022A0A0A0CFC6A0A0A0D1
:10135000D320CDA0CCCFD3D4A022A0A0A0CFC6A014
:10136000A0A07F01120CF47F81120C997F327E00C5
:1013700071F97F68120E50120C23120EF78F66124D
:101380000EF78F67120C3CE4FF120CF47F80120CF6
:1013900099E56624EF60212490602124FC602524D7
:1013A000FC602924F8602D24EC603124F0602D24A9
:1013B000B4703675681180077411802E75682575B4
:1013C0006910802A756824756930802275682475D3
:1013D0006931801A756825756911801275682575DF
:1013E00069307F01120CF48005E4F568F5697B0033
:1013F0007A007968227FFA7E000000000000000079
:1014000000000000000000EF1F70011E144E70E984
:10141000221208067578FFE4F520F521120C767586
:10142000A14075F80C75A20BD2F812349C75A3304C
:1014300030FFFDC2FF30810B75790630810571F5F3
:10144000D579F8D2FA7F0F91EEEF605B7FF091EEE5
:10145000EF24FE60232482603324FE6037248270F0
:10146000397FF191EEEFD394034008752011752177
:1014700001802775201180177FF191EEEFC413547E
:10148000072450F521E43411F520800E75202575D0
:1014900021008006752025752150E5214520600733
:1014A0004380C27578022275A60C7F01120CEE7F74
:1014B000011234F0E52145207004FF1234F0E521DB
:1014C00045206029E4F57875803F75A4CD7590FFBF
:1014D000F5A575A0FF75A60C75E102900089937FB4
:1014E00040B4DB027FC08FE2120C80C2F8228F2D45
:1014F000C2FA30810B752E0630810571F5D52EF8B4
:10150000E52D4480F5A330FFFDC2FFE4F5A330FFD5
:10151000FDC2FFAFA3D2FA227889E6601B18E61855
:1015200046600908E61618700116800C7F36121FF7
:10153000BEE47889F6087601788AE66037787FE637
:10154000602012253D8F2BE52B20E00F123543E460
:10155000788EF6788AF67F3A121FBEE4FD7F0E027F
:101560001EB6E4788EF67F0212082BE4788AF67FA6
:101570003A021FBEC2AFE5757003D2AF227FFB9166
:10158000EEEF700A7891E67005F575D2AF22787F9C
:10159000E67002C16212253D8F2BE52B30E002C1BF
:1015A0005C78907640759622C2FA30810B752C06D5
:1015B00030810571F5D52CF875A3FF30FFFDC2FF12
:1015C0007891E67044787DE630E4247897514812AB
:1015D00025327808512212253278105122122532F4
:1015E000781851228F97122492789074FC26F6E492
:1015F000F5A330FFFDC2FF788EA6A3E6F59778909D
:1016000016788E060678917601788EE6547FFF78FC
:1016100090E6FEEFC39E50028002AF06C3788EE6CE
:101620009FF6C37890E69FF6AE071FEE6012E59630
:1016300020E7FBE4F5A330FFFDC2FF85A39780E818
:10164000E59620E7FBD2FA123543120833788EE68E
:10165000700A7890E66005E408F6F575121EB2D2BD
:10166000AF22E4F575D2AF7F3F91EE7895E6FC08A6
:10167000E6122F6EE02402788EF6788C7601C2FA9C
:1016800030810B752C0630810571F5D52CF875A3CA
:10169000FF30FFFDC2FF788EE6166017E4F5A33039
:1016A000FFFDC2FF788CE606FF78951227C3E5A3FD
:1016B000F080E3D2FAE4FF02082BE516700712224D
:1016C000A175160222E51664026002E193AE0AE5F6
:1016D0000B54C06002E193EE146005046002E193D4
:1016E000E50A7F0130E0027F18123531F551120B07
:1016F000E5CEC313CE13D8F9F5538E524552700D73
:10170000C3E50F9551F553E50E9400F552850E543F
:10171000850F55755602755704E55545546074C2DA
:10172000FA30810B75580630810571F5D558F8C32C
:10173000E5559551F555E5549400F554AF51AE0774
:101740001FEE60140557E557AC567002055612356A
:101750003A30FFFDC2FF80E6C3E5559553F555E5E8
:10176000549552F554AF53AE071FEE60140557E57C
:1017700057AC567002055612353A30FFFDC2FF8055
:10178000E6E5A26003120833D2FAE5A2608B1208E4
:101790003380862278A6E6FE08E6AA06F97BFF12C9
:1017A0002FF5900372E0FD7F09157CA87CA6051239
:1017B000351230810FA87C760630810871F5A87C3F
:1017C00016E670F5A87C08E6F5A330FFFDC2FFA879
:1017D0007C0808E6F5A330FFFD121FDD057C22AE74
:1017E0000AE50B54C060030218A4EE1460060460FE
:1017F000030218A4E50A7F0130E0027F1812353198
:10180000F559120BE5CEC313CE13D8F9F55B8E5AFA
:10181000455A7006850E5A850F5B850E5C850F5DF7
:10182000755E02755F04E55D455C6078C2FA3081E3
:101830000C7560063081061213F5D560F7E5591472
:10184000601614600B147018850AA330FFFDC2FFE8
:10185000850CA330FFFDC2FF850DA330FFFDC2FF45
:10186000050DE50D7002050CC3E55D955BF55DE5C5
:101870005C955AF55CAF5BAE071FEE601CE4F5A308
:1018800030FFFDC2FF055FE55FAC5E7002055E14D0
:10189000F5828C83E5A3F080DED2FAE5A2608712A0
:1018A000083380821222A175160122E521452060AD
:1018B0002E7533FF75340B7535B27BFF7A0B79A12A
:1018C00051CCE520C4540F24B09003A8F0E52012B9
:1018D000083EE521C412083EE52112083E8011753C
:1018E00033FF75340B7535D47BFF7A0B79C351CC3C
:1018F000D1D331F4E561600431C180F8227577FFFE
:101900007D017F09D1B61227B6D2AFE578601112FA
:10191000204512289BE561600431C180F8120BEE6E
:101920001220CFE57714601214601614601E146044
:101930003324047034120CF78039E5C930E6208076
:10194000281213F512212F1233D7800BE5C930E688
:101950000E1213F512212F31F431C1710F8014755D
:101960007802800F12232C800A1213F512212F31D6
:10197000F431C1E577657860AAC2ABE57824FE60F2
:101980001114602514602A2404702EC2F8120CE091
:1019900080279003BFE07003120BEE209385E49044
:1019A00003BFF01220F4122C5D1227051220F480E0
:1019B00008D2F875A2011233AE1224A885787721D7
:1019C00023E561602EE563702A1220C0E0F56460B3
:1019D00019740425651220C7E05401F562C3E5645B
:1019E0009562F564756301D2C522E4900304F0F5B5
:1019F00061F565229003BEE0603DE56170397403D6
:101A00001228C67480123503780B7C037A03799E02
:101A10001234BA90031B74031228C974C012350320
:101A200078227C037A0379AE1234BAE4900332F060
:101A30007561019003BEF022E509243BB40E00401D
:101A40000241C5901A5175F003A4C58325F0C583E2
:101A500073021A7B021A80021A8A021A85021A8FEE
:101A6000021A96021A9B021AA0021AA5021AAA02C8
:101A70001AAF021AB6021ABB021AC01234288048E2
:101A800012341580431221EE803E12282D8039E455
:101A9000FF120C9980321216BA802D1217DF80289F
:101AA0001226E680231232E6801E1233B98019AF67
:101AB0000B120CEE80121224EF800D1226C7800844
:101AC0001222B18003751604531FFE2212354AF507
:101AD00036AB30AA31A93212301AFF1228D2749EC6
:101AE0002536F582E43403F583EFF0AB33AA34A94D
:101AF0003512301AFF1228D274AE2536F582E4343E
:101B000003F583EFF00536E536C3941040C3227821
:101B1000A4E6B40C004002C195901B20F82828735D
:101B2000021B44021BE6021BFB021C17021C6A027A
:101B30001E5C021C90021CAB021CC8021CF8021D99
:101B400031021E86900370E014604024FE60581439
:101B5000602824FE606824046002C19512349875E0
:101B6000A33030FFFDC2FF30810C752F0630810697
:101B70001213F5D52FF7D2FAD2AFF101F1B8D2ABEB
:101B8000D2AFE577B40202D1C2A1D912349875A3BD
:101B90003030FFFDC2FF30810C752F0630810612F8
:101BA00013F5D52FF7D2FAF101F1B8D2ABD2AF903D
:101BB00003941212850000000178A4760122E577D3
:101BC0006403701B12253BEF20E01190038012127A
:101BD0008500000000122FE3D1B6F1F4D2AF22301D
:101BE0009302C190E1F41230A178A47602789F06A6
:101BF000E618700106E4FFFE123150789BE6700291
:101C0000C1957881E66002C195789BF6D2A07F18D5
:101C10007E011231A0802F7889E6602F789CE660E3
:101C200025B297E4F6900104E0B4010C900106E0BF
:101C300030E70578A476042212351D50250806E603
:101C400018700106801178A476032212351D5012F7
:101C50000806E618700106E4FFFE12315078A476FB
:101C600002227405D1DA78A4F622123185C2AF12AD
:101C700027D2F1EDD1DE9003731235629003741216
:101C800034DC90037212321676057F5C7E01C1222D
:101C9000789CE67002C19512352864236002C195D4
:101CA000900127E020E702C1958036789BE670021C
:101CB000C1957881E66002C195789BF678A4760894
:101CC000D2A07F0C7E01C1837889E66026789CE6ED
:101CD0007002C195123528B4230E900127E030E739
:101CE0000778A4760702316AE4FFFE1231A078A4D7
:101CF00076062278A4760922C2AF12304CF1ED901C
:101D00000106E0FF78A0760008A607E6FEA3E0FD46
:101D1000EE18F6ED08F6D1DE90010412356290015E
:101D2000051234DC900103123216760A123552C1C4
:101D300083C2A4789CE67002A1DEB297900384D19E
:101D4000A7D1E5900384121260E4789CF6789EF6A1
:101D500008F69001021232A830E70CB2A712324600
:101D6000E4FF122901800D90038CD1A7D1E59003E7
:101D70008C121260D1A4122C3CFBC31212115028F9
:101D8000900394D1A7D1E59003941212601232B45B
:101D900078A47605900376E070057F50FEC1227826
:101DA00087E6FE08E6FF807A900376E0FFB4010242
:101DB000807BEF6002C1951234C530FFFDC2FF3059
:101DC000810C752F063081061213F5D52FF7D2FA44
:101DD000F103F1E6B40202D1C212355AC183788907
:101DE000E6600578A4760A22789F06E61870010658
:101DF000C3789FE6946418E694005029D1A4122C6D
:101E00003CFBC3121211501D900394D1A7D1E59051
:101E100003941212601232D5120FCB78A47605E427
:101E2000FFFE023150900376E0FFB4010578A476FE
:101E30000B22EF70601234C530FFFDC2FF30810C01
:101E4000752F063081061213F5D52FF7D2FAF1035C
:101E5000F1E6B40202D1C212355A8027D2A412325E
:101E60001D789BE6602F7881E6702AD2A0FF1229A8
:101E700001E4789BF678A4760A7F2C7E011213F990
:101E80001235520231A07406D1DA789CF678A4F6A5
:101E90007F0112290122900388E0F8A3E0F9A3E072
:101EA000FAA3E0FB900380E0FCA3E0FDA3E0FEA327
:101EB000E022E4FD7F0EC2AF8F968D97122492D25E
:101EC000AF227533FF7534127535F37BFF7A1279C3
:101ED000E251CC9003BE7401F022900370F0E478DC
:101EE0009EF608F6222401FFE43EFEE43DFDE43CBC
:101EF000FC227E007F1F7D007B017A03797F021226
:101F0000B6D1F2900371E0FFE4FDEF146024146099
:101F10003B14605224037068ED601175F022A42414
:101F2000DEF582E5F03439AF82FE806C7E087F4BAF
:101F30008066ED601175F022A42444F582E5F0344A
:101F40003AAF82FE80047E087F6D804CED60117593
:101F5000F022A424AAF582E5F0343AAF82FE800490
:101F60007E087F8F8032ED601175F022A42410F579
:101F700082E5F0343BAF82FE80047E087FB180189A
:101F8000ED601175F022A42476F582E5F0343BAFC4
:101F900082FE80047E087FD378A6A60608A60722C4
:101FA0001217947D007F0A1217A91231C5753408E3
:101FB0007F3E1227E5023072C2AFF1A07F331235A7
:101FC00012308110A87C76063081091213F5A87CA6
:101FD00016E670F4A87C08E6F5A330FFFDC2FFD238
:101FE000FA057C057C22F1A0D2AFE577227F33F1A0
:101FF000BED2AF229003707405F022EF70055389B2
:10200000FC8006BF01065389CFEB4289EF7013EDC8
:10201000D394034005438E048005538EFB1138D2C0
:102020008C22BF0112EDD394034005438E08800536
:10203000538EF71138D28E22752FFCE58E522FE584
:102040002F4DF58E22758C96858C8A7B027D04E45B
:10205000FF121FFBE4F5C143C18043E601E4F561D3
:10206000F563F56522C0E0C083C082C0D075D000A2
:10207000C007E5C054F02480602224C0600D24E035
:10208000703111C0E0F5C2C2C58028E56270241528
:1020900064E564601911C0E0F5C28017AF6415648F
:1020A000EF600911C0E5C2F0D2C18007C2C1D2C43D
:1020B000756300C2C0D007D0D0D082D083D0E032C8
:1020C000AF65056574042FF582E43403F58322E4DB
:1020D00078B011E9F608F69003D6F075BC3C75BAF5
:1020E0001F75D108D2EED2EF22F608F608F608F6F0
:1020F00008F60822E4789E11E9764008F608760B87
:102100000876080876D3789376000876000876017A
:10211000087602121FF4A314F0A37401F0A3743D17
:10212000F0A3740AF0A37402F0E4A3F0F5A22290E5
:1021300003D6E014607A14700221C92402600221DF
:10214000ED75BB09C2EDD2EC30EDFD78B5E608F6D1
:10215000AFBEEFD39460400AEF947B50051876032E
:102160008037EFD394A4400BEF94BF500678B57638
:10217000048026EFD394C4400BEF94DF500678B56B
:1021800076018015EFC39400400BEF943D50067824
:10219000B576028004E478B5F678B5E6FF08667097
:1021A0000280027F0078B4A6079003D67401F02263
:1021B000A295E43378B3F67F002093027F0178B2D2
:1021C000A6079003D67402F02275BB06C2EDD2ECCE
:1021D00030EDFDAFBEEFF8E479B1F7E819F7AFBD28
:1021E00078B0E6F608E64FF6E49003D6F022E50D67
:1021F00014605814700241762402600241A0E51672
:1022000070107510017511037512D7F51375140848
:102210004194E5166402600241A09003D7E0FF906C
:1022200003DBE0FE30E005EF13B39297EE30E106FA
:10223000EFA2E1B392A0EE30E206EFA2E2B392A7E2
:10224000EE30E35CEFA2E3B392A422E516701BE547
:102250000F6420450E6002802C7510017511037506
:10226000129E751300751420802AE51664027030E2
:102270009003BE04F022E516701ED3E50F9464E5CA
:102280000E94004004751604227510017511037533
:10229000120451AA75160222E516B40203756101F3
:1022A00022751001751102751204850E13850F1425
:1022B00022E516700D751001F511F51251AA75166B
:1022C0000222E5166402705C712530810330CFFA7A
:1022D00020810330CFFAC287E4F5A330FFFDC2FFAF
:1022E00030810330CFFAE50F2402F5A330FFFDC2A1
:1022F000FF20810330CFFA850DA330FFFDC2FF859B
:102300000FA330FFFDC2FF900000E50F150FAE0ECA
:102310007002150E4E600BE0F5A330FFFDC2FFA367
:1023200080E8D2FA2291E3C2FAD2872278AFE6702F
:1023300002816C91D330E00261C678ADE6FE08E61A
:10234000FF4E6073C3EF9440EE9400400C752F0075
:1023500075304078A8760180088E2F8F30E478A8F9
:10236000F6C378AEE69530F618E6952FF6C2AF784C
:10237000ABE6FE08E68E31F532E5301530AE2F7053
:1023800002152F4E601F759622853282853183E0BB
:10239000F5970532E53270020531E53130E2029100
:1023A0006D919280D4D2AF78ABA63108A6329174E9
:1023B000E4FD7F0E021EB678A8E6600A9174121E34
:1023C000B2E478A8F622C378AEE6948018E69403C7
:1023D00040028165C2AF712530810330CFFA208180
:1023E0000330CFFAC28775A30330FFFDC2FF3081EF
:1023F0000330CFFAE4F5A330FFFDC2FFAFA3752F82
:10240000008F3078AEE53026F618E52F36F678AA3C
:10241000E624FFF53218E634FFF531E5301530AE2D
:102420002F7002152F4E6022E4F5A30532E53270BD
:10243000020531E53130E202916D30FFFDC2FF85CA
:102440003282853183E5A3F080D1D2FA0532E532BC
:1024500070020531E53130E202916D78A9A63108AC
:10246000A632D2AF227FE87E031213F92275310023
:10247000753240227B017D117F028D338B34918B2D
:102480008533968534979192D2AF22C2AF75960E5E
:102490008F97E59620E7FB228D33918BE533B12CA6
:1024A000859733D2AFAF33227B08917691D320E367
:1024B000FB7B08917691D320E3FB91DB7D1491D5D2
:1024C00020E4F991DB7D1491D520E4F9E4FD7F0E41
:1024D000021EB67D117F029198EF227B107D147F42
:1024E000028097C2CAE4F5CCF5CDC2CFD2CA227E13
:1024F000007F087D007B007A0079A81212B678A9C7
:10250000760008764008760008764091A87125305C
:10251000810330CFFA20810330CFFAC28775A3013F
:1025200030FFFDC2FFD2FA78AF7601224480F596E3
:1025300081928F9791927897021248C2AF7D027F65
:102540000E121EB67F11C2AFEFB12CAF97D2AF22E1
:102550007880E6607D08E66005788DE66074788FA7
:10256000E67015D1C07F14B146EF30E0087F16B198
:1025700046788FA607121EB2788DE67055788FE6E2
:102580006050D1BC787EEFF630E009789712126C7B
:1025900000000000E47882F608F678867601787EFE
:1025A000E630E409D1BC7892A607788F16D1BC78C2
:1025B0008DA607788F1616787EE6540A7008788DF7
:1025C000E6D3943D400CC2AFC2A0C297C2A4C2A73A
:1025D00080FE7886E67002C1B17883E61846600214
:1025E000C1A87886F67889F67880E66018787EE665
:1025F00030E5057F36121FBE787EE630E40578921E
:10260000E6F1B0F11FC2A078817601C2FA30810CE8
:10261000752D063081061213F5D52DF775A33B30C5
:10262000FFFDC2FFE4F57675A33530FFFDC2FF75EF
:10263000A37F30FFFDC2FF788DE6F5A330FFFDC21A
:10264000FF788BE6F52B788DE6F52C7880E6603008
:10265000D1C08018AF2C152CEF6016E59620E7FB53
:102660008597A330FFFDC2FFE52C60E87596A28038
:10267000E3E4788FF6FD7F14121EB6121EB28019A5
:10268000AF2C152CEF6012AF2B052B7893F1C3E024
:10269000F5A330FFFDC2FF80E7788BA62BE4788D91
:1026A000F6D2FAFFF1A480097883E61618700116B5
:1026B00022E5766006E4F5767881F6227F22A1464F
:1026C0007D027F0E021EB6E478AFF67125308103DD
:1026D00030CFFA20810330CFFAC28775A30230FFD2
:1026E000FDC2FFD2FA22E50B450A601491A8F1055C
:1026F00078807601187601D2ABF11FF1B6D2A8220C
:10270000C2ABC2A8227F217B007A00797DF19DC2F5
:10271000AB758D60E4F58BFB7D047F01021FFBC26E
:10272000FA30810C752E063081061213F5D52EF77E
:1027300075A30630FFFDC2FF75A33D30FFFDC2FF4C
:1027400075A38730FFFDC2FFE4F5A330FFFDC2FF94
:10275000AFA375A30730FFFDC2FFEF4404F5A3301C
:10276000FFFDC2FF75A38830FFFDC2FFE4F5A33073
:10277000FFFDC2FFAFA375A30830FFFDC2FFEF54FA
:10278000CD4405F5A330FFFDC2FF75A30230FFFD68
:10279000C2FF75A30630FFFDC2FFD2FA227E007D84
:1027A000000212B6EF7004789B760122900372E06B
:1027B000FD7F0A0217A9D288E5E454F04406F5E447
:1027C000C2A822E6FC08E68C832FF582E43583F567
:1027D0008322121794F1AC90037312306B1231C53F
:1027E0007534087F3E8F308B318A328933C2FA309C
:1027F000810C7535063081061213F5D535F7E530B5
:102800004440F5A330FFFDC2FFAF341534EF601A2A
:10281000AB310533E533AA327002053214F9120FD9
:10282000F1F5A330FFFDC2FF80DFD2FA22E50D24CF
:10283000FD601B146029240270607404250BF9E408
:102840003403751001F51189121222AA80497510FE
:10285000007511007512B075130075140780387576
:102860001000751100751208751300751404AB1073
:10287000AA11A912E580121059AB10AA11A9129041
:102880000001E59012106B900002E5A012106B9011
:102890000003E5B012106B75160122C2A3120833B3
:1028A000D2A3E49003BEF0740711C6A3740CF0A386
:1028B0007421F0A374A0F0A37407F0A37424F0E4CF
:1028C000A3F075610122900304F0A37476F0E4A3F1
:1028D000F022BF24047F828027BF40047F808020B5
:1028E000EF70047F9B8019EFD3941F4013EF945B2C
:1028F000500EEF64246009EF6440600474802FFF81
:10290000228F30E577640260024193F1AF241AF917
:102910007413789E7C037F09F19AF1AF2423F97434
:102920001335F0FA78AE7C037F09F1DAE56D6002C9
:10293000410A912C60169003A274CDF09003A47408
:10294000D3F09003B2F09003B474CDF0E53070751D
:1029500078A4E6640A600241A19003849140900348
:102960009851B2C004C005C006900398121EA791EA
:102970004BD006D005D0049100F091335006B190B1
:10298000912180F6900394121EA7FFEC4D4E4F70DC
:102990000241909003889140FB900394A3A3A3E08D
:1029A000C390039051C1C004C005C006A3121EA766
:1029B000914BD006D005D0049100F09133400241F4
:1029C00090910880F651A2C004C005C006121EA452
:1029D000914BD006D005D0049100F091335006B150
:1029E00090912180F6121E96B18051CCC004C00592
:1029F000C006121EA4914BD006D005D0049100F061
:102A0000913340024190910880F6E56D64017012A7
:102A1000912C6005B16874CDF0900394121EA7FF4D
:102A2000805AE56D6402702F912C6005B16874CDF9
:102A3000F0E530701978A4E6640A70659003889117
:102A400040FB900394121EA7B18051CC802E121E21
:102A500096B18051CC8025912C600774CDB16A74F9
:102A6000D3F0E530701478A4E6640A7034900384DF
:102A70009140FB90039851B3800251A27B017A03ED
:102A800079A7D12C121EA4FF7B017A0379B7D12C30
:102A9000021ED312253BEF20E005F1E3121EB6D251
:102AA000AF22900384E0F8A3E0F9A3E0FAA3E0905A
:102AB0000380FBE0FCA3E0FDA3E0FEA3E0C39003E2
:102AC0008C9BFFEE9AFEED99FDEC98FCE0F8A3E0FC
:102AD000F9A3E0FAA3E02FFFEA3EFEE93DFDE83C62
:102AE000FC22D1C5B155EC4D4E4F700261F5AB34AF
:102AF000AA33A932A831D3121211400261F5753CF4
:102B000030753D30753E30753F30754030E4FFFE26
:102B1000FDFCB14F6061B155B14F700E754031751C
:102B20003F30753E30753C30804D753C2DE540643E
:102B3000307044853F40853E3F853D3E753D30D1F8
:102B4000CE7B0AFAF9F81210F4D1C5B155AB34AA0C
:102B500033A932B14F401C053DE5349538F534E5D5
:102B6000339537F533E5329536F532E5319535F560
:102B70003180D8053C80B67405253DF53DE4FF74F1
:102B80003D2FF8E6C3943A400616743E2FF8060F20
:102B9000BF03EC71F9AA3A7002053A14F9E54071E5
:102BA000F6AA3A7002053A14F9742E71F6AA3A7030
:102BB00002053A14F9E53F71F6AA3A7002053A1493
:102BC000F9E53E71F6AA3A7002053A14F974657196
:102BD000F6AA3A7002053A14F9742D71F6AA3A7001
:102BE00002053A14F9E53C71F6AA3A7002053A1466
:102BF000F9E412105922121059AB39053BE53B227A
:102C000051E29003C0740922745F2FF582E434030B
:102C1000F583E0FF11D29003C0E024AEF582E434E6
:102C200003F583EFF09003C0E004F022900376E018
:102C30006401229003C0E0FFC3941022FF9003942C
:102C4000E0F8A3E0F9A3E0FAA3E022F5388E378D8F
:102C5000368C35753901753A03753B68227A0379EC
:102C60009EF1C27A0379AEF1C2F189E56C24FA6073
:102C70000C2406701690039E7430F0801490039E0E
:102C80007412F09003BD7420F0800690039E7422AD
:102C9000F0E4F53074C02530F582E43403F583E0C8
:102CA000FF11D274A02530F582E43403B15E940D97
:102CB00040E2E56C64047030F530900B16E4F1CD21
:102CC00075F00AA424F9F582E43409F583E5822538
:102CD000301227CAE493FF11D274A72530F582E49D
:102CE0003403B15E940740D29003CEE0FF640260EB
:102CF0005BEF700EA3B175FF7E007C037DB2B1AABD
:102D00008034E4F530B17275F00AA47C002530FF00
:102D1000EC35F0FE9003D4E0FCA3E02FF582EC3E0E
:102D2000F583E493FF11D274B22530F582E43403C5
:102D3000B15E940940CFB172F1B840069003B0740F
:102D400010F0F1A650069003BA7420F0021ED3A82A
:102D500031C3021211AF38AE37AD36AC3522F58330
:102D6000EFF00530E530C32274D390039EF090035A
:102D7000A0229003CFE0FBA3E0FAA3E0F9020FF159
:102D8000C39BFFEE9AFEED99FDEC98FC9003902218
:102D9000745F2FF582E43403F583E0FF11D29003D2
:102DA000C0E0249EF582E43403228E318F328C33CE
:102DB0008D34E4F536F537F538753927753A10E571
:102DC000324531700A7F30D12370020533E16D75D1
:102DD0003505AF351535EF6049AC39AD3AAE31AF99
:102DE0003212109F8E378F38E5367006E53845373A
:102DF000601F753601AE31AF32AC39AD3A12109F5B
:102E00008C318D32E5382430FFD12370020533F147
:102E10006DAE39AF3A7C007D0A12109F8E398F3A21
:102E200080B02211D20534E534AC3322D1C58B35C4
:102E30008A368937753901E4F53AF53B753F4075B7
:102E40003E42753D0FF53CF538F175D1CE12117F3C
:102E50008E3A8F3BE53B453A7004E5397026E4F540
:102E600039D1CEF17512117FAC00AD01AE02AF03C6
:102E7000D1C5E53B24B0AB35AA36A9378538827574
:102E80008300801CE538AB35AA36A937B40609F5AE
:102E90008275830074B0800885388275830074A0C1
:102EA00012106BAF3FAE3EAD3DAC3CE47B0AFAF98D
:102EB000F812117F8F3F8E3E8D3D8C3C0538E538F2
:102EC00064077085228F348E338D328C3122AF347B
:102ED000AE33AD32AC31228F30F189E53024FE6063
:102EE0001614601D14604224036002E16CE56CD38B
:102EF00094004078156C22E56CC39406506E056C06
:102F0000229003CEE064026063A3B175F1B8405C27
:102F1000E56CB4020DEFB43D0474208044EFC3139C
:102F2000803FF17EF974FF80409003CEE0B4021838
:102F3000E56C64067036900B84F1CD9003707004DC
:102F40007402F0227401F022B172FFF1A6501DE567
:102F50006CB40210EF25E0121059B172B4400D7438
:102F60003D021059F17EF974011210372214F582D6
:102F70008C83EFF022AB3FAA3EA93DA83C229003F0
:102F8000CFE0FBA3E0FAA3E022E56C75F016A424E1
:102F900007F9740B78C07C037F1635F0FA7BFF7D50
:102FA000017E00020FCB9003D3E0FEEFC39E22E52B
:102FB0006D25E075F009A422FF9003D2E0FEEFD367
:102FC0009E227E007F107D9B7B010212B693FB74D4
:102FD0000193FA740293F9020FF17BFF7D017E00E9
:102FE000020FCB7B017A03797F7D1F7F2212302372
:102FF0007D017F112212354AF533AB30AA31A93257
:10300000853382111DFDE53390130493FF1217A938
:103010000533E533C3941640E1228536827583007B
:1030200002100A8B318A328933ED601FE4FEEEC351
:103030009D5018C2AF8F96AB31AA32A9338E821140
:103040001DF597122492D2AF0E80E3227B017A0104
:10305000790812179F1227AC900104116B7B017A3B
:1030600001791E7534087F3E0227E5E0FD7F0612D8
:1030700017A97D057F071217A97D187F181217A9B8
:103080007D0C7F171217A97D007F251217A97D06D9
:103090007F021217A97D3D7F061217A9C289D2A807
:1030A00022318574233178900373E0FD900002F0A3
:1030B000900374E0900003F03145741678A031401D
:1030C000741793FB78A1E618F6EB3143742078A2CD
:1030D0003140742193FB78A3E618F6EB08F6EDC3B4
:1030E000943D900373E0500DC4540F24FFFFE4346B
:1030F000FFFE188008C4540FFF7E0078A2E6FC088B
:10310000E6FD12108D78A1EF26F618EE36F678A0BF
:10311000E6FC08E6FDEC900004F0AF05A3EFF078C4
:10312000A6E6FE08E6AA06F978067C007F16122FAE
:10313000DA31C5781C7C007D017E007F08020FCB50
:1031400093760008F678A6E6FE08E6F5828E8322DE
:103150003192788B760178933147E0788DF67882DA
:10316000A63008A631788676012274023178A374DD
:1031700001F07F0A7E0080D8900000F0900372E09A
:10318000900001F022900371E0FF900375E0FD02D2
:103190001F0A8E308F31C2AF7F36121FBED2AF22D0
:1031A0003192E5314530600D7887A63008A63108A8
:1031B0007601E408F6C2AF7F34121FBEE4F57578DD
:1031C00091F6D2AF2278A7E62418FF18E436FAA9C0
:1031D000077BFF22900000EFF0A3EDF07F097B0159
:1031E0007A00790212279D9000047401F075300076
:1031F00075310B12097E74002531F582740035306B
:10320000F583EFF00531E53170020530C39402E536
:1032100030940140DE22E0FD31D478A42275300ADA
:1032200012097E78A5E6FE2400F582E43400F583D9
:10323000EFF0900373E0FFEEB50704760B800378A0
:10324000A506D530DB2278997C037A017904519F59
:10325000120FCB78897C037D017B017A0179077E8F
:10326000007F03120FCB78917C037A01790A519F7A
:10327000120FCB90037FE02403F582E43401F58341
:10328000E0FF90039CE4F0A3EFF090037F51A8FDD2
:1032900090039DE0FFED90039CCFF0A3EFF0227D23
:1032A000017B017E007F0322E02404F582E43401E7
:1032B000F583E02251D5120FCB7A03798578057C0E
:1032C0000051DD120FCB7A03798D7B0178087C00E9
:1032D00051DF020FCB7A03799578027C007B017D68
:1032E000017E007F0322787DA60DE50D30E04BE6E0
:1032F00030E20C7F36121FBEAD0C7F0A1217A97880
:103300007DE630E1177897121248C3E50B9F788865
:10331000F6E50A9E18F6788976018010E50B450AD5
:10332000600A7887A60A08A60B087601E4788AF670
:103330007891F612271F7F3480027F36021FBEC0AD
:10334000E0C0F0C083C082C0D075D000C000C00112
:10335000C002C003C004C005C006C007758D6075FB
:103360008B007897121248EF121EE57897121254CC
:10337000122550121518D007D006D005D004D0035E
:10338000D002D001D000D0D0D082D083D0F0D0E015
:1033900032C0E0C0D075D000C0007881E66005750D
:1033A00076018003757501D000D0D0D0E032E4788A
:1033B000AFF6F5C8F5CAF5CB22E516701990037083
:1033C000E0B40512751001751103751270751300C4
:1033D0007514077516022278B4E6F52F900370E095
:1033E000B40515E52F656A600BAF2F122ED7122C8E
:1033F0005DE4F56D852F6A22E52F656B6013E52F7F
:10340000B40104156D8007E52FB40202056D536DFC
:1034100003852F6B227510007511007512777513D7
:103420000075140175160122850D7822C2FA3081CB
:103430000C757A063081061213F5D57AF775A33D1F
:1034400030FFFDC2FFD2FAAFA322C2FA30810C7561
:103450007B063081061213F5D57BF775A3BD30FFCF
:10346000FDC2FFD2FAAFA3228B728A738974ED601A
:1034700026430780E4FEEEC39D501CC2AF8F961218
:103480002492AB72AA73A9748E82758300E5971299
:10349000106BD2AF0E80DF22C2AFC2A8D2FA7F017A
:1034A0007E001213F9C2FA7F017E001213F9D2FADC
:1034B0007F2D7E001213F9C2FA227D017B017E006E
:1034C0007F10020FCB78A0F608F6789BF608F6126C
:1034D0001EF2C2AFC2A8C2FA75A330227F02FEFD5F
:1034E000FCE0F9F8121235900380121260AF03224B
:1034F000120CF112136278207C007D007E007F02A6
:10350000020FCBA3F0A37412F0A37476F0A374405F
:10351000F022157CA87CA607157CC2FA22C3789FEE
:10352000E6940518E6940022B297E4F6900102E0D2
:1035300022EF14F5A2E50B54032214F5828C83E0EC
:10354000F5A3227D017F11021EB68B308A318932AC
:10355000E42278A0E6FE08E6FF2278A47606E4FFDF
:10356000FE22E0FB90037FF0E422FFFFFFFFFFFF5E
:10357000FFFFFFFFFFFFFFFFFFFFFFFFFFFFFFFF5B
:10358000FFFFFFFFFFFFFFFFFFFFFFFFFFFFFFFF4B
:10359000FFFFFFFFFFFFFFFFFFFFFFFFFFFFFFFF3B
:1035A000FFFFFFFFFFFFFFFFFFFFFFFFFFFFFFFF2B
:103A00000C1D89F5830332090615166C0391E90A2A
:103A10001F561040883103F76000000000000000CE
:103A200002150C1D89CA830332090635166C4391B1
:103A3000E90A1F5610408831008F60000000000026
:103A4000000000110C1D890E3B7342090D001D1C66
:103A5000C7B0EA0A1FB61000883100756000000088
:103A600000000000000110A762F58303320906156B
:103A7000166C0391E90A1F561040883103F7600065
:103A8000000000000000021510A762CA830332097B
:103A90000635166C4391E90A1F5610408831008F95
:103AA0006000000000000000001110A7620E3B73D0
:103AB00042090D001D1CC7B0EA0A1FB6100088316C
:103AC000007560000000000000000001216276F532
:103AD000830332090615166C0391E92A1F5610401C
:103AE000813503F78E0000000000000002152162FE
:103AF00076CA830332090635166C4391E92A1F56AC
:103B000010408135008F8E00000000000000001181
:103B10002162760E3B7342090D001D1CC7B0EA2AD4
:103B20001FB61000883100758E00000000000000F4
:103B3000000123313BF5830332090615166C03910E
:103B4000E92A1F561040813503F78E00000000005F
:103B50000000021523313BCA830332090635166C77
:103B60004391E92A1F5610408135008F8E000000D6
:103B700000000000001123313B0E3B7342090D0091
:103B80001D1CC7B0EA2A1FB61000883100758E00D0
:103B900000000000000000015D93B1868303320B3A
:103BA0000844166C0391A90A11561040813502355C
:103BB000FE00000000000000010B5D93B12D3B737F
:103BC000320B09001D1CC7B0EA0A11B6100088317B
:103BD0000077FE0000000000000000035D93B10EBE
:103BE0003B73420B0C001D1CC7B0EA0A19B610400B
:103BF00088310075FE000000000000000001FFFF9A
:103C0000FF75B980E4FFFE0FBF00010EEF64144E94
:103C100070F543B9C0E5B930E5FB75A90275B2830B
:103C200022E50A24FE601914606B2402600281CD33
:103C30007510FF75110075127E90007EE49381C6A9
:103C4000E5226031900849E493FE740193FF240E4D
:103C5000FDE43EA9057510FFF51189128F828E8350
:103C6000741193FE900849E493FC740193F5828CDF
:103C700083741080137510FF7511007512909000F9
:103C800093E493FE900092E4937C002400F514ECFE
:103C90003EF513803BE50B14601214601A24027089
:103CA0001F7510FF7511007512A280147510FF7535
:103CB00011007512A680097510FF7511007512BCF0
:103CC0001205191200D4751300F51480037516043B
:103CD000E51664046014D3E514950FE513950E40C2
:103CE00006850E13850F1475160122C2AF53D77FB8
:103CF000E50B450A601C7FD07E070000EF1F7001B6
:103D00001E144E70F5E50B150B7002150A14450ACA
:103D100070E475EF1022E50F7004E50E64027F0178
:103D200060027F048F16E50D25E07510FFF5117513
:103D3000120075130275140022E516702EE523603B
:103D400008E50D641D450C700AE50F7004E50E646E
:103D50000260047F0480027F028F167513027514BF
:103D60000075100175110075120022E516640270CD
:103D700055E50D7F0025E0FE43EF02C2AF758F03CE
:103D800075B7A575B7F18F82F583E4F0758F017C67
:103D9000007D00752702F528E5281528AA2770025E
:103DA00015274A601C75B7A575B7F18D828C83E025
:103DB0008F828E83F00FBF00010E0DBD00010C80BD
:103DC000D7E4F58FD2AF22FFFFFFFFFFFFFFFFFF1A
:103DD000FFFFFFFFFFFFFFFFFFFFFFFFFFFFFFFFF3
:103DE000FFFFFFFFFFFFFFFFFFFFFFFFFFFFFFFFE3
:103DF000FFFFFFFFFFFFFFFFFFFFFFFFFFFFFFFFD3
:00000001FF
